:020000040800F2
:10000000782D002039010008093200080D2E000863
:1000100005320008B10A00089941000800000000FC
:100020000000000000000000000000009135000802
:100030009D140008000000000B320008EF38000893
:100040005301000853010008530100085301000840
:100050005301000853010008530100085301000830
:100060005301000853010008530100085301000820
:100070005301000853010008530100085301000810
:100080005301000853010008530100085301000800
:1000900053010008530100085301000853010008F0
:1000A000000000005301000853010008530100083C
:1000B000C939000853010008530100085301000822
:1000C00053010008530100085301000853010008C0
:1000D00053010008F53F00085301000805400008DF
:1000E00053010008530100085301000853010008A0
:1000F00053010008000000005301000853010008EC
:100100000000000000000000530100085301000837
:1001100053010008530100085301000800000000CB
:1001200053010008DFF80CD000F060FB00480047E6
:1001300015440008782D00200648804706480047EF
:10014000FEE7FEE7FEE7FEE7FEE7FEE7FEE7FEE787
:10015000FEE7FEE7653900082501000840EA0103D3
:100160009B0703D009E008C9121F08C0042AFAD26D
:1001700003E011F8013B00F8013B521EF9D2704731
:10018000D2B201E000F8012B491EFBD270470022D9
:10019000F6E710B513460A4604461946FFF7F0FF86
:1001A000204610BD30B505462A460B4612F8010B15
:1001B00013F8014B08B1A042F8D01CB1002802D0BE
:1001C0006D1CF1E7284630BD421C10F8011B0029C8
:1001D000FBD1801A704730B480EA010202F000457A
:1001E00030F0004221F0004013D090B1C30DD40D87
:1001F000C2F31601C0F31600E41A41F4000140F402
:1002000000027D34914201D3641C00E04900002CBF
:1002100002DA30BC002070474FF400000023914206
:1002200001D3891A034340084FEA4101F7D151B184
:10023000914202D14FF0004105E002D24FF001019E
:1002400001E06FF0010103EBC450284430BC00F022
:100250009AB92DE9FE4F804681EA0300C00F0C4693
:10026000009021F0004123F00045B8EB0200A941C5
:1002700005D24046214690461C460B46024623F0D6
:100280000040104347D0270DC7F30A00C3F30A51BB
:100290000290401A019040286BDAC3F3130040F437
:1002A000801B0098924620B10023D2EB030A63EB37
:1002B0000B0B01985946C0F14002504600F032F94C
:1002C00006460D4650465946019A00F04AF910EB91
:1002D00008006141002487EA115284EAE7731A4357
:1002E00040D0009A62B3019A012A4FEA075215DC06
:1002F000001B61EB02014FF0004202EA0752CDE918
:100300000042001C41F5801132462B4600F081F975
:1003100003B0BDE8F08F40462146F9E7001B61EBD2
:100320000201001C41F5801300185B412018A2F562
:10033000001747EB030140EAD570B6196D4111E093
:100340006D084FEA360645EAC0754FEA0752001BB2
:1003500061EB0201001C41F5801149084FEA3000B1
:100360000019514132462B4603B0BDE8F04F00F072
:1003700041B90098012240000023D0EB020263EB58
:10038000E073009821464FEAE074B8EB000061EB9F
:100390000401E9E783F000435BE781F0004158E79F
:1003A0002DE9FE4F81EA030404F0004421F00041EE
:1003B00000944FF0000B23F0004350EA01045ED09C
:1003C00052EA03045BD0C3F30A54C1F30A552C4428
:1003D000A4F2F3340194A0FB0254C1F3130141F4DD
:1003E0008011C3F3130343F4801301FB024400FBA9
:1003F000034E840A970A44EA815447EA8357A4FBD0
:10040000076802958D0A05FB07854FEA932C04FBCC
:100410000C542705029D4FEA065847EA1637B5EBFC
:1004200008056EEB070C870E920E47EA811742EA29
:100430008312A7FB0201B6EB0B0164EB00042B0D4A
:1004400043EA0C335E1844EB1C50DA465146E7FB96
:100450000201C5F313044FEA0B3343EA14534FEA86
:100460000432019C43EA0603A4F10C040294009CAC
:10047000CDE900B400F0CDF803B0BDE8F08F002066
:100480000146F9E796230022114600F085B80EB523
:10049000C10F80EAE0700844CA07002140F23343EC
:1004A0008DE80E000A460B4600F0B3F803B000BD1D
:1004B0000EB540F2334102910021CDE900110A4608
:1004C0000B4600F0A6F803B000BD20F00040C10DBF
:1004D000C0F3160040F400007F2901DA00207047C5
:1004E000962903DCC1F19601C840704796398840CF
:1004F0007047C1F30A5210B5C1F3130140F2FF3344
:1005000041F480119A4201DA002010BD40F23343D9
:100510009A42A2F2334203DC524200F012F810BDBC
:10052000904010BD202A04DB203A00FA02F100209E
:1005300070479140C2F1200320FA03F31943904021
:100540007047202A04DB203A21FA02F0002170478C
:1005500021FA02F3D040C2F120029140084319462B
:100560007047202A06DBCB17203A41FA02F043EA13
:10057000E07306E041FA02F3D040C2F1200291405C
:100580000843194670470029A8BF7047401C49001E
:1005900008BF20F00100704710B4B0FA80FC00FAE8
:1005A0000CF050EA010404BF10BC704749B1CCF113
:1005B000200421FA04F411FA0CF118BF012121439F
:1005C0000843A3EB0C01CB1D4FEA00614FEA10205A
:1005D00042BF002010BC704700EBC35010440029FC
:1005E000A4BF10BC7047401C490008BF20F00100A8
:1005F00010BC704710B5141E73F1000408DA401CDB
:1006000041F1000192185B411A4301D120F0010031
:1006100010BD2DE9F04D92469B4611B1B1FA81F221
:1006200002E0B0FA80F220329046FFF77BFF0446EA
:100630000F4640EA0A0041EA0B0153465A46084376
:1006400013D0114653EA010019D0C8F140025046B8
:10065000FFF777FF05460E46504659464246FFF7DC
:1006600061FF084305D0012004E020463946BDE87B
:10067000F08D0020054346EAE0762C4337430A9884
:100680006305E40AA0EB08000022FD0A44EA47548F
:100690000A3002D500200146E9E701051019694139
:1006A000DDE9084500196941BDE8F04DA2E72DE9F3
:1006B000F04D81EA030404F0004B21F0004514469C
:1006C0004FF0000A23F0004150EA050220D054EA1E
:1006D00001021DD0C5F30A570246C5F31303C1F347
:1006E0001300C1F30A5640F4801543F48013A7EBBE
:1006F0000608101BD64608F2FD3873EB050002D33E
:1007000008F1010801E092185B41B8F1000F03DA2B
:1007100000200146BDE8F08D00204FF48011064610
:1007200084460EE0171B73EB050705D3121B63EB22
:10073000050306434CEA010C49084FEA30009218C1
:100740005B4150EA0107EDD152EA030012D082EA80
:10075000040083EA0501084305D0101BAB4106D213
:100760000122002306E000224FF0004302E06FF078
:10077000010253101AEB06004CEB085110EB0A0073
:1007800041EB0B01BDE8F04DFFF734BF70B521F030
:10079000004303430CD0C1F30A550024D5EB0405F4
:1007A00064EB0403D617AD1AB34102DB0020014607
:1007B00070BD201841EB025170BD000030B5041E21
:1007C00071F1000404DB4FF00044404264EB01018E
:1007D000141E73F1000405DB1C464FF00043524227
:1007E00063EB0403994208BF904230BD064C074DAD
:1007F00006E0E06840F0010394E8070098471034F1
:10080000AC42F6D3FFF792FC90500008B0500008BD
:100810002DE9F04D00231A461B1A8A4103DB002004
:100820000146BDE8F08DC1F30A52C1F3130141F452
:1008300080154FF0000BD10702D100186D41521EF8
:100840000027044640F2FF11384601EB620A3E469B
:100850008046024600204FF48011FFF772FEC21955
:100860007141BB1846EB0100B4EB030C75EB000CB7
:1008700004D3E41A65EB000517460E46241908F167
:1008800001006D4180463428E3DDF91946EB06008E
:10089000091BA84103D24FF0FF32134601E00022AA
:1008A00013461BEB070046EB0A51BDE8F04DFFF77E
:1008B000A1BE000010B513480168134800F066F8A7
:1008C00010480168114800F055F80E4808210268E8
:1008D0000F4800F0C7F80B48102102680C4800F0E0
:1008E00065F80C4802680C4801680C48006802F082
:1008F0008FFA08480268084801680848006803F051
:1009000033FC10BD28000020180000201A00002031
:100910000004024024000020200000201C000020D1
:100920002DE9F84304460D4616461F46DDF82080A3
:100930000C48008800900C480388224620210B4870
:1009400000F05CF82088012809D1D8F800303A6816
:100950002846316802F068FD012005490880BDE89D
:10096000F88300001A000020180000200004024054
:10097000340000200288012A06D10A6812B10A68F0
:10098000521E0A6002220280704700000288012A7B
:1009900008D1054B0A689A4202D20A68521C0A60C2
:1009A00002220280704700007F96980070B50546CD
:1009B0000E4614463146284601F09AF870B90120D7
:1009C0000B4908800B480088C82807DD206828B13B
:1009D0000020084908802068401E206031460648F3
:1009E00001F086F8012802D100200149088070BD7D
:1009F0000200002006000020000402402DE9F04122
:100A00000746884614461D46069E4146384601F074
:100A10006FF890B9208880B97DB976B901200F4967
:100A200008800F480088B0F5FA6F06DD01202080AD
:100A300000200B490880094908804146384601F0EA
:100A400057F8012803D0012D01D0012E04D1002038
:100A50000349088001490880BDE8F08104000020B6
:100A60000A00002070B505460E4614463146284659
:100A700001F03EF860B901200A4908800A48008860
:100A8000C82805DD0020084908802068401C206037
:100A90003146064801F02CF8012802D10020014916
:100AA000088070BD00000020060000200004024005
:100AB00000BFFEE72DE9F05F04460D4616461F46CF
:100AC000DDE90CABDDE90A890020383404F8380C84
:100AD00004F8375C04F8366C44F8347C24F8308C25
:100AE00044F82C9C24F828AC44F804BC0E982080D0
:100AF0000F986060109820811198E0601298208211
:100B00001398606114982083282060770620A076CF
:100B10000C20E07614202077383C322000F03CF89E
:100B200000223321204600F06BF8052000F034F855
:100B300000223321204600F063F8052000F02CF855
:100B400000223221204600F05BF8052000F024F856
:100B500094F852100022204600F052F894F85310F6
:100B60000022204600F04CF894F854100022204651
:100B700000F046F894F855100022204600F040F8A6
:100B800000220121204600F03BF8002202212046ED
:100B900000F036F8BDE8F09F10B50446204600F09E
:100BA000FDFD10BDF8B504460D461646002713A0FE
:100BB000006800906078A84202DC6078401EC5B2F0
:100BC000A078B04202DCA078401EC6B21DF8060034
:100BD0002844C7B22078102806D147F080010022AF
:100BE000204600F08BF807E0207828B947F0800114
:100BF0000022204600F004F8F8BD00000040145424
:100C00002DE9F04104460F4690463D113E46B8F1AD
:100C1000000F05D121890022606800F071FF07E014
:100C2000B8F1010F04D121890122606800F068FF4A
:100C300005F001020C34A18DA06A00F061FFA18EC5
:100C4000C5F34002206B00F05BFFA18FC5F380026B
:100C5000A06B00F055FFB4F84410C5F3C002206C3F
:100C600000F04EFFA1880022206800F049FF01201B
:100C7000FFF792FFA1880122206800F041FF0120C8
:100C8000FFF78AFFA1880022206800F039FF0120C9
:100C9000FFF782FF06F00102A18DA06A00F030FF8D
:100CA000A18EC6F34002206B00F02AFFA18FC6F38D
:100CB0008002A06B00F024FFB4F84410C6F3C00219
:100CC000206C00F01DFFA1880022206800F018FFB2
:100CD0000120FFF761FFA1880122206800F010FFCA
:100CE0000120FFF759FFA18854F80C09002200F0F9
:100CF00007FF0120FFF750FFBDE8F08170B5044603
:100D00000D4616462EB921890022606800F0F8FED3
:100D100006E0012E04D121890122606800F0F0FE76
:100D200005F00102218B606900F0EAFE218CC5F319
:100D30004002E06900F0E4FE218DC5F38002606AA4
:100D400000F0DEFE218EC5F3C002E06A00F0D8FE9E
:100D5000218FC5F30012606B00F0D2FEB4F8401092
:100D6000C5F34012E06B00F0CBFEB4F84810C5F3B9
:100D70008012606C00F0C4FEEA09B4F85010E06C18
:100D800000F0BEFE218A0022E06800F0B9FE0120DA
:100D9000FFF702FF218A0122E06800F0B1FE012086
:100DA000FFF7FAFE218A0022E06800F0A9FE012088
:100DB000FFF7F2FE70BD70B504460D46207810288E
:100DC00005D1012229462046FFF798FF06E020784A
:100DD00020B9012229462046FFF712FF70BD70B5E9
:100DE00005460C4604E014F8011B2846FFF7E3FF14
:100DF00020780028F7D170BD2DE9F0478AB08146F0
:100E00008A461446002600252AE0611B481EFFF78B
:100E10003EFB02460B46CDE900010020164903F0D7
:100E2000A3FB0746884619F80510A1F13000FFF72B
:100E30002EFB3A464346CDE90201FFF7B1FACDE970
:100E400006013046FFF734FBCDE90401DDE9062356
:100E5000FFF7FFF9CDE90801FFF74BFB06466D1CD4
:100E6000A542D2DB0548864202D80CB1CAF8006020
:100E70000AB0BDE8F0870000000024407F9698008B
:100E80001CB50C480C490D4B0D4ACDE900100D491D
:100E90000D4800F037F80A490B48008800F094F834
:100EA0000948008800F0DCF80748008800F00EF8D8
:100EB0001CBD0000E8000020E4000020E00000204D
:100EC000F2000020EE000020EC00002010B50446E7
:100ED0009CB91021094800F00BFE28B90848008889
:100EE00010B90120064908801021044800F000FED6
:100EF000012802D100200249088010BD00040240F0
:100F00001A0000202DE9FC470446884691461D46FC
:100F1000DDE90A670421234800F0EAFD10B9012049
:100F20002149088020480088012838D104211D4823
:100F300000F0DEFD012832D100201B490880208806
:100F400010B90120208001E00020208020880128A5
:100F500016D1A8F8000015480068286014480068F9
:100F6000306014480068386038683168CDE9001096
:100F700011482B6811490268114800F09DFB08E0F8
:100F80000A49286808600A493068086009493868D1
:100F900008600120A9F8000004480A490860BDE87B
:100FA000FC870000000C0240140000201C00002000
:100FB00020000020240000203000002000FD010857
:100FC00010F801082800002070B505460C462021C5
:100FD0001C4800F08DFD10B901201B4908801A48FB
:100FE000008801282CD12021164800F081FD01281D
:100FF00026D100201449088014480088E8B903F07D
:1010000009F82088032802D10120208002E02088EE
:10101000401C20802088012802D10D480D4908601D
:101020002088022802D10C480A4908602088032839
:1010300006D10A480749086002E0002003490880F9
:1010400070BD0000000402401600002034000020A3
:101050001C00002028000020200000202400002088
:1010600010B504469CB90821094800F041FD28B993
:101070000848008810B90120064908800821044862
:1010800000F036FD012802D100200249088010BD81
:10109000000402401800002070B5044600252079A5
:1010A0000A2806D1012000F079FB20790A2800D116
:1010B000012568B270BD00001CB533A23549364821
:1010C00003F0A2F801281AD1344908230A46CDE9D1
:1010D00000100421314802F08DF902202F49034607
:1010E0002F4ACDE900100121104602F083F90020BB
:1010F0002C4908602C490880264800F0D0F92BA222
:101100002449254803F080F801283BD1294B2A4A7D
:101110002A492048083002F0F5F801201F49082329
:101120000A46CDE9001004211C4802F063F90220B0
:101130001A4903461A4ACDE900100121104602F06F
:1011400059F90020174908601749088001201C49F7
:1011500008801848006818490968CDE90010174848
:10116000012218490368184800F0A6FA11480368DC
:101170001148026811480168144802F055F9054801
:1011800000F08DF91CBD000041542B5245534554CD
:101190000000000040020020D0150020000802409E
:1011A00000000240DC000020F000002053455455B0
:1011B00050000000E8000020E4000020E0000020D3
:1011C000EC00002000FD010810F80108F2000020EA
:1011D0002DE9F04105460C4616461F461348007897
:1011E00010BB12E04FF4FA7000F0D8FA1048007803
:1011F000401C0F490870084600780A2805DD0020C9
:10120000087001200949087007E03B463246214634
:10121000284602F0B5FA0028E4D000BF00200449B7
:101220000870204600F03BF9BDE8F0811000002076
:10123000110000201CB51D480088012819D11C4947
:1012400008230A46CDE900100421194802F0D2F81B
:10125000022017490346174ACDE900100121104624
:1012600002F0C8F8002014490880144908600F49AA
:10127000088013480088C0B901200D4908230A4698
:10128000CDE9001004210A4802F0B4F80220084910
:101290000346084ACDE900100121104602F0AAF8E1
:1012A000002005490880054908601CBDEE000020AB
:1012B0000008024000000240F0000020DC00002096
:1012C000EC00002070B504460D4603E04FF47A7040
:1012D00000F064FA0AA30BA22946204602F050FA55
:1012E0000028F3D003E04FF47A7000F057FA04A31B
:1012F00007A22946204602F043FA0028F3D070BD29
:101300004F4B000041542B434D47463D31000000F8
:1013100041542B434E4D493D312C320030B59DB0E8
:1013200005460C4603E04FF4FA6000F037FA4AA392
:101330004AA22146284602F023FA0028F3D082E090
:1013400045A347A221462846FFF742FF42A347A2F2
:1013500021462846FFF73CFF3FA346A221462846E8
:10136000FFF736FF4648007801286BD126220DA8EA
:101370002168FEF7F3FE2068C08CADF85A002068A3
:10138000816A1791808DADF860002068C08DADF83E
:101390006200206800F13001092219A8FEF7DEFE84
:1013A000206890F839008DF86D00206890F83A00B8
:1013B0008DF86E002068C06B1C9032A0302211A9FD
:1013C0000C906846FEF7CAFE0DA80FC802F088FB15
:1013D00041F2883000F0E2F926220DA82168FEF7DC
:1013E000BDFE2068C08CADF85A002068816A179154
:1013F000808DADF860002068C08DADF86200206877
:1014000000F13001092219A8FEF7A8FE206890F823
:1014100039008DF86D00206890F83A008DF86E0064
:101420002068C06B1C901AA0302211A90C9068464D
:10143000FEF794FE0DA80FC802F052FB00201049E1
:10144000087000E004E00E48007800283FF478AF10
:1014500000BF1DB030BD00004F4B000041540000E4
:1014600041542B4350494E3F0000000041542B4350
:101470005351000041542B43475245473F00000061
:101480001000002041542B4346554E3D34000000CF
:1014900041542B4346554E3D31000000704770B516
:1014A00004460020E080207104F10800FEF78CFE65
:1014B0000546002004E0002204F108010A54401C03
:1014C000A842F8DB70BD000010B50C4A0C490D486D
:1014D00002F078F80948028809480188094800881C
:1014E00001F0C0FC054802880548018805480088CD
:1014F00002F022FE044802F00FFE10BDFA000020A8
:10150000F8000020F6000020E80100200FB470B5BC
:10151000149C2046FEF758FE85B24FF47A732A4693
:10152000214604A801F006FC4FF47A73022203A1BD
:1015300004A801F0FFFB70BC5DF814FB0D0A00006D
:10154000704700000021094A51610949096841F4C6
:101550000071074A11601146096841F008011160E5
:10156000002120F0FF021160704700006029002078
:10157000043C0240014608687047000000202749EB
:10158000096801F48071B1F5807F07D12449496968
:1015900041F00201224A516140F480701F490968FC
:1015A00001F40071B1F5007F07D11D49496941F08F
:1015B00001011B4A516140F400701849096801F4A7
:1015C0000061B1F5006F07D11549496941F0040187
:1015D000134A516140F400601049096801F4005158
:1015E000B1F5005F07D10E49496941F010010C4A7D
:1015F000516140F400500949096801F48051B1F586
:10160000805F07D10649496941F02001044A5161D0
:1016100040F480500149086070470000183C0240C7
:101620006029002070B5044600F070FA054609E014
:10163000601C38B124B100F069FA401BA04201D906
:10164000032070BD1B48006800F001000028EFD1A6
:101650001848006800F00200022801D1154908600E
:101660001448006800F48070B0F5807F1BD01148EA
:10167000006800F40060B0F5006F14D00D480068F9
:1016800000F40050B0F5005F0DD00A48006800F487
:101690008050B0F5805F06D00648006800F4007006
:1016A000B0F5007F03D1FFF769FF0120C9E70020F3
:1016B000C7E70000183C02402DE9FF4704460D46ED
:1016C00017461E46DDE90C8900F0F8F8002001906D
:1016D0000294281B000A039000200090694601A88C
:1016E00000F070F83A462146022000F0BDF832467C
:1016F000211D022000F0B8F8424604F10801022042
:1017000000F0B2F84A4604F10C01022000F0ACF8F7
:1017100000F0A0F8BDE8FF8707480068401C0649B4
:101720000860084600680549884202D30020024943
:1017300008600148006870470C0000201858260512
:1017400070B50446002594F82100022803D0042037
:10175000A063012520E02068006820F00E002168C9
:1017600008602068006820F001002168086094F893
:10177000400000F01C0101208840E16B486001201E
:1017800084F8210000BF002084F8200000BF606BB7
:1017900010B12046616B8847284670BD70B504467D
:1017A00000F0B4F906462546681C10B104480068EC
:1017B000054400BF00F0AAF9801BA842FAD370BD0F
:1017C000040100202DE9F04104460E4601270025C2
:1017D00000BF1E48007C012802D10220BDE8F08134
:1017E00001201A49087400BF4CF25030FFF71AFF6D
:1017F00007461FBB4FF0FF303060656817E0284692
:10180000FFF7A0FE4CF25030FFF70CFF07461048E0
:10181000006820F008000E4908600846006820F4BF
:10182000007008600FB1356007E005F58075D4E9F8
:10183000011001EB0020A842E1D800BF00BF00204A
:101840000249087400BF3846C8E70000602900203C
:10185000043C02400348006840F00200014908606F
:1018600000207047043C02402DE9F04107460C4639
:101870001546012600BF1048007C012802D1022035
:10188000BDE8F08101200C49087400BF4CF25030D3
:10189000FFF7C8FE064646B90020074948612560A3
:1018A0004CF25030FFF7BEFE064600BF0020024952
:1018B000087400BF3046E3E7602900201348006841
:1018C00000F0020002281FD11048006800F001005B
:1018D00060B10F480D49083108600E4808600B4898
:1018E000006800F0010008B1012070470A4807496C
:1018F0000C310860094808600448006800F00200E4
:10190000022801D10120F0E70020EEE7043C02406C
:10191000EFCDAB8905040302BFAE9D8C16151413E1
:1019200078B50346002200240020CAE00126964034
:101930000D6805EA0604002C71D04D68022D02D016
:101940004D68122D13D1D60803F1200555F8260055
:101950005507EE0E0F25B540A8435607F60E0D6944
:10196000B5402843D60803F1200545F8260018683D
:1019700056000325B540A8430D7905F00305560030
:10198000B540284318604D68012D08D04D68022DE0
:1019900005D04D68112D02D04D68122D13D19868D5
:1019A00056000325B540A8435600CD68B5402843EE
:1019B0009860586801259540A8430D79C5F3001536
:1019C000954028435860D86856000325B540A84381
:1019D00056008D68B5402843D8604D6805F08055A5
:1019E000B5F1805F6CD100BF394D2D6845F0010520
:1019F000374E356035462D6805F00105009500BF6E
:101A000000BF344D960855F8260095072E0F0F2578
:101A1000B540A843304DAB4202D1002515E04FE060
:101A20002E4DAB4201D101250FE02D4DAB4201D12E
:101A300002250AE02B4DAB4201D1032505E02A4DDA
:101A4000AB4201D1042500E005259607360FB540CD
:101A50002843204D960845F82600244D2868A043C9
:101A60004D6805F48035B5F5803F00D120431F4D0A
:101A700028602D1D2868A0434D6805F40035B5F594
:101A8000003F00D12043194D2D1D28602D1D2868D1
:101A9000A0434D6805F48015B5F5801F00D12043A3
:101AA000124D083528602D1D2868A0434D6805F4A7
:101AB0000015B5F5001F00D120430C4D0C352860F2
:101AC000521C0D68D540002D7FF430AF78BD00006A
:101AD000203802400800014000000240000402409B
:101AE00000080240000C02400010024000040140C7
:101AF000024613690B400BB1012000E00020704743
:101B00000AB1816101E00B048361704701480068FC
:101B100070470000FC000020034800680349096882
:101B20000844014908607047FC00002004010020BF
:101B300010B50024032000F0B3F8002000F008F8EE
:101B400008B1012401E000F02FF8204610BD00008C
:101B500070B50446002511480068D8B10F480068E8
:101B60004FF47A71B1FBF0F00D490968B1FBF0F662
:101B7000304600F03BFD58B9102C07D20022214618
:101B8000501E00F04FF80748046004E0012502E011
:101B9000012500E00125284670BD00000401002059
:101BA000080100200001002008B500BF14480068AB
:101BB00040F00040124908600846006800F000400C
:101BC000009000BF00BF00BF081F006840F0010088
:101BD000091F08600846006800F00100009000BF7F
:101BE00000BF00BF081D006840F08050091D08605C
:101BF0000846006800F08050009000BF00BF08BD9C
:101C00002438024001460846002809DB00F01F0383
:101C100001229A4043099B0003F1E023C3F800210D
:101C200000BF70472DE9F05F80460D46164600273D
:101C300002F048FB074639462A46334601F00700C2
:101C4000C0F1070ABAF1040F02D94FF0040A01E00B
:101C5000C0F1070AD14600F1040ABAF1070F02D217
:101C60004FF0000A01E0A0F1030AD4464FF0010A48
:101C70000AFA09FAAAF1010A0AEA020A0AFA0CFAAD
:101C80004FF0010B0BFA0CFBABF1010B0BEA030B52
:101C90004AEA0B042146404602F01CFBBDE8F09FD7
:101CA00000BF00F00702064B19684FF6FF0319400A
:101CB000044B0B4343EA0221014B196000BF7047FC
:101CC0000CED00E00000FA052DE9F04104460D4658
:101CD00014B90120BDE8F0817E48006800F00100E1
:101CE000A84218D200BF012D05D17A48006840F003
:101CF0000400784908607748006820F00100284314
:101D00007449086000BF0846006800F00100A8425E
:101D100001D00120DEE7207800F00200022807D180
:101D20006D48006820F0F000A16808436A49086027
:101D3000207800F0010000287FD06068022807D1D9
:101D400065480838006800F40030F8B90120C1E7A0
:101D50006068032807D160480838006800F0007008
:101D6000A0B90120B6E76068012807D15A480838B1
:101D7000006800F0020048B90120ABE75648083877
:101D8000006800F4007008B90120A3E75248006819
:101D900020F00300616808434F490860FFF7B6FE72
:101DA00006466068022810D108E0FFF7AFFE801BEE
:101DB00041F28831884201D903208BE74648006808
:101DC00000F00C000828F0D137E06068032810D13B
:101DD00008E0FFF79BFE801B41F28831884201D961
:101DE000032077E73C48006800F00C000C28F0D195
:101DF00023E06068012810D108E0FFF787FE801B10
:101E000041F28831884201D9032063E732480068F3
:101E100000F00C000428F0D10FE008E0FFF776FE98
:101E2000801B41F28831884201D9032052E72A48B9
:101E3000006800F00C000028F0D12648006800F08F
:101E40000100A84218D900BF012D05D12148006822
:101E500040F004001F4908601E48006820F001009F
:101E600028431C49086000BF0846006800F00100D4
:101E7000A84201D001202DE7207800F004000428BA
:101E800007D11548006820F4E060E1680843124972
:101E90000860207800F00800082808D10E48006883
:101EA00020F46050216940EAC1000B49086000F04D
:101EB00041F809490968C1F30311084A515CC84057
:101EC0000749086007480068FFF742FE07463846A2
:101ED00000E70000003C024008380240954F00082F
:101EE0000801002000010020014800687047000040
:101EF0000801002000B5FFF7F7FF04490968C1F3A6
:101F00000221034A515CC84000BD0000083802406D
:101F1000A54F000800B5FFF7E7FF04490968C1F3C2
:101F2000C221034A515CC84000BD0000083802408D
:101F3000A54F0008F0B51A4E316801F00C0616B333
:101F4000042E04D0082E04D00C2E1BD103E015481B
:101F500023E0154821E0154EC1F38347F25DC1F33C
:101F60008156731C0E4E366806F4803626B10E4E2E
:101F70005643B6FBF3F403E00A4E5643B6FBF3F4C4
:101F800020460AE000BF064E361F3668C6F34235CB
:101F90006E1C0127B740F80300BF00BFF0BD000072
:101FA000083802400024F40000366E018C4F00080F
:101FB0002DE9F843044614B90120BDE8F883FE4832
:101FC000006800F00C06FC48006800F480372078B8
:101FD00000F00100002875D0082E04D00C2E0ED180
:101FE000B7F5803F0BD1F4480838006800F40030A2
:101FF000002867D06068002864D10120DDE700BFB9
:102000006068012808D1EC480838006840F4803046
:10201000E949083908602DE0606868B9E648083881
:10202000006820F48030E4490839086008460068F8
:1020300020F4802008601DE0606805280DD1DE488E
:102040000838006840F48020DB49083908600846F9
:10205000006840F4803008600CE0D7480838006819
:1020600020F48030D449083908600846006820F41C
:102070008020086000BF606890B1FFF747FD05460B
:1020800006E0FFF743FD401B642801D9032094E7D5
:10209000C9480838006800F400300028F1D011E089
:1020A000FFF734FD054606E0FFF730FD401B6428CE
:1020B00001D9032081E7C0480838006800F40030E7
:1020C0000028F1D1207800F00200022853D1042E1C
:1020D00002D00C2E17D1B7B9B7480838006800F005
:1020E000020020B1E068012801D0012065E7B24874
:1020F000001F006820F4F850216940EA0120AE4931
:10210000091F086037E0E06800B30120AB490860B0
:10211000FFF7FCFC054606E0FFF7F8FC401B022831
:1021200001D9032049E7A4480838006800F00200FC
:102130000028F1D0A048001F006820F4F850216961
:1021400040EA01209C49091F086014E000209B49D7
:102150000860FFF7DBFC054606E0FFF7D7FC401BF5
:10216000022801D9032028E793480838006800F0C6
:1021700002000028F1D1207800F01000102871D161
:10218000F6BB8D480838006800F4007018B1A069EB
:1021900008B9012011E78849091F206A096801F47C
:1021A0006041884219D9206A01F030F808B1012055
:1021B00003E78148001F006820F46040216A08435B
:1021C0007D49091F0860217F7B48001F006861F37B
:1021D0001F607949091F08601AE07748001F0068EE
:1021E00020F46040216A08437349091F0860217F79
:1021F0007148001F006861F31F606F49091F00E00C
:1022000020E00860206A01F001F808B10120D4E65E
:102210000121206A01EB503101208840C00366494A
:102220000968C1F30311664A515CC84065490860FA
:1022300065480068FFF78CFC8046B8F1000F42D07B
:102240004046BAE6A06948B301205C490862FFF73E
:102250005DFC054607E0FFF759FC401B022802D948
:102260000320AAE62FE054480838006800F4007004
:102270000028F0D05048001F006820F46040216A18
:1022800008434D49091F0860217F4B48001F006823
:1022900061F31F604849091F086014E000204749A6
:1022A0000862FFF733FC054606E0FFF72FFC401BF2
:1022B000022801D9032080E63F480838006800F46E
:1022C00000700028F1D1207800F0080008282CD1F7
:1022D0006069A8B101203D490860FFF717FC054679
:1022E00006E0FFF713FC401B022801D9032064E637
:1022F00031482C30006800F002000028F1D014E0D2
:10230000002032490860FFF701FC054606E0FFF7B0
:10231000FDFB401B022801D903204EE626482C3045
:10232000006800F002000028F1D1207800F00400DD
:1023300004286ED14FF000091F481C30006800F0DF
:10234000805088B900BF1C481C30006840F08050A5
:1023500019491C3108600846006800F08050009060
:1023600000BF00BF4FF001091948006800F48070F9
:10237000B0B91748006840F4807015490860FFF74D
:10238000C5FB054606E0FFF7C1FB401B642801D9E9
:10239000032012E60E48006800F480700028F2D096
:1023A00000BFA068012817D103482C30006840F412
:1023B000807001492C310DE008380240000047428E
:1023C000954F0008080100200001002080064742C8
:1023D00000700040086028E0A06858B966480068AE
:1023E00020F48070644908600846006820F480602A
:1023F00008601AE0A06805280CD15F48006840F426
:1024000080605D4908600846006840F4807008609C
:102410000BE040E05848006820F48070564908609E
:102420000846006820F48060086000BFA06898B18A
:10243000FFF76CFB054608E0FFF768FB401B41F225
:102440008831884201D90320B7E54B48006800F481
:1024500000700028F0D012E0FFF758FB054608E0B6
:10246000FFF754FB401B41F28831884201D9032019
:10247000A3E54148006800F400700028F0D1B9F1EC
:10248000010F07D13C481038006820F080503A49CD
:102490001039086000BF606AA8B30C2E52D0606A81
:1024A000022839D1002035490866FFF72FFB054681
:1024B00006E0FFF72BFB401B022801D903207CE537
:1024C0002D483438006800F000700028F1D1D4E9BC
:1024D0000A010843216B084327492C39096821F474
:1024E0007D01084324492C390860012023490866EE
:1024F000FFF70CFB054607E0FFF708FB401B02282F
:1025000002D9032059E535E01B483438006800F053
:1025100000700028F0D02DE0002018490866FFF771
:10252000F5FA054606E0FFF7F1FA401B022801D94B
:10253000032042E510483438006800F0007000289D
:10254000F1D117E0606A012800D136E50A482C383D
:10255000076807F48031A06A814209D107F470113D
:10256000E06A814204D107F44001206B814201D02E
:10257000012022E5002020E53438024000004742D7
:1025800000B5FFF7C9F813480088012804D11248A4
:102590000088401C1049088010480088012803D09A
:1025A0000F480088012805D10E480088401C0D49BD
:1025B000088004E000200B4908800B490880094886
:1025C0000088B0F5FA7F04DD07480088401C064902
:1025D000088000BD040000200A0000200000002048
:1025E00002000020080000200600002070B504460C
:1025F0002546681EB0F1807F01D301200FE0681EE0
:102600004FF0E02148610F214FF0FF3001F062FEF2
:1026100000204FF0E021886107200861002070BD94
:1026200010B5FFF7ADFF10BD10B5024600BF92F820
:102630003800012801D1022010BD012082F83800A5
:1026400000BF022082F8390010684368106884686F
:1026500023F070030868034324F0800448680443AF
:102660001068436010688460012082F8390000BF60
:10267000002082F8380000BF00BFDDE710B5044637
:102680000CB9012010BD94F8390028B9002084F855
:102690003800204600F00CF8022084F83900211D93
:1026A000206801F099F9012084F839000020E9E759
:1026B00038B504462068B0F1804F15D100BF0B48F3
:1026C000006840F00100094908600846006800F011
:1026D0000100009000BF00BF002201211C20FFF775
:1026E000A1FA1C20FFF78EFA38BD00002438024002
:1026F00001460868C06840F001000B68D8600868AF
:10270000806800F00702062A05D00868006840F0DB
:1027100001000B681860002070472DE9F041044665
:102720000D4600BF94F83800012802D10220BDE810
:10273000F081012084F8380000BF022084F83900BD
:102740002068866826F0770626F47F462068866033
:102750002868502833D00CDC202850D004DC002816
:102760004BD0102851D149E0302849D040284CD1D5
:1027700039E060282DD0702807D0B0F5805F03D0F5
:10278000B0F5005F41D10DE040E0D5E902136A6881
:10279000206801F069F92068866846F077062068AD
:1027A000866033E0D5E902136A68206801F05CF9BD
:1027B0002068806840F480402168886026E0EA68EC
:1027C0006968206801F064F95021206801F057F928
:1027D0001CE0EA686968206801F06DF960212068F2
:1027E00001F04DF912E0EA686968206801F050F9DB
:1027F0004021206801F043F908E000BF00BF00BF9E
:102800002968206801F03BF900E000BF00BF01200B
:1028100084F8390000BF002084F8380000BF00BFF2
:1028200085E7704710B5044620680069C0F3400092
:10283000D8B12068C068C0F34000B0B16FF00200AA
:1028400021680861012020762068806900F003007B
:1028500018B12046FFF7E5FF05E0204600F08BF8B1
:10286000204600F089F80020207620680069C0F337
:102870008000D8B12068C068C0F38000B0B16FF0AC
:10288000040021680861022020762068806900F435
:10289000407018B12046FFF7C4FF05E0204600F065
:1028A0006AF8204600F068F8002020762068006969
:1028B000C0F3C000D8B12068C068C0F3C000B0B198
:1028C0006FF0080021680861042020762068C06944
:1028D00000F0030018B12046FFF7A3FF05E02046F3
:1028E00000F049F8204600F047F8002020762068E4
:1028F0000069C0F30010D8B12068C068C0F30010B0
:10290000B0B16FF0100021680861082020762068BF
:10291000C06900F4407018B12046FFF782FF05E05F
:10292000204600F028F8204600F026F80020207607
:102930002068006900F0010058B12068C06800F00C
:10294000010030B16FF0010021680861204600F0FD
:1029500015F820680069C0F3801058B12068C0687D
:10296000C0F3801030B16FF040002168086120464C
:1029700000F00CF810BD704770470000024909686C
:10298000491C014A11607047DC0000207047704705
:102990002DE9F0470446206805682068C66820686D
:1029A00047694FF00008C14605F00F08B8F1000F65
:1029B0000AD105F0200038B106F0200020B12046F1
:1029C00001F0D2F8BDE8F087B8F1000F6ED007F043
:1029D000010018B906F49070002867D005F00100D6
:1029E00030B106F4807018B1E06B40F00100E06394
:1029F00005F0040030B107F0010018B1E06B40F0C1
:102A00000200E06305F0020030B107F0010018B1E8
:102A1000E06B40F00400E06305F0080030B107F01F
:102A2000010018B1E06B40F00800E063E06B70B3A8
:102A300005F0200028B106F0200010B1204601F07A
:102A400093F820684069C0F38019E06B00F008003B
:102A500010B9B9F1000F23D0204601F065F82068C5
:102A6000406900F04000402816D12068406920F0FD
:102A7000400021684861606B50B11748616B486342
:102A8000606BFEF75DFE10B1606B416B88470CE038
:102A90002046FFF77CFF08E02046FFF778FF04E0C0
:102AA0002046FFF774FF0020E0638BE705F080000D
:102AB00030B106F0800018B1204601F031FA81E70C
:102AC00005F0400030B106F0400018B1204601F09A
:102AD0003BF877E700BF75E7153B000810B50446E3
:102AE0000CB9012010BDA06900B100E000BF94F84E
:102AF000390028B9002084F83800204600F028F872
:102B0000242084F839002068C06820F4005021682F
:102B1000C860204601F07CF82068006920F49040ED
:102B2000216808612068406920F02A002168486116
:102B30002068C06840F400502168C8600020E0634D
:102B4000202084F8390084F83A000020CAE7000009
:102B500010B586B00446142101A8FDF718FB3A49C8
:102B60002068884232D100BF3848006840F4804075
:102B7000364908600846006800F48040009000BFB5
:102B800000BF00BF081F006840F00200091F086076
:102B90000846006800F00200009000BF00BFC0209F
:102BA000019002200290012003900320049007204E
:102BB000059001A92648FEF7B3FE00220221252038
:102BC000FFF730F82520FFF71DF83AE0214920688B
:102BD000884236D100BF1D48001D006840F48020A7
:102BE0001A49091D08600846006800F4802000901A
:102BF00000BF00BF00BF1548001F006840F0040080
:102C00001249091F08600846006800F0040000909F
:102C100000BF00BF4FF440600190022002900120ED
:102C20000390032004900720059001A90A48FEF7AD
:102C300077FE002203212720FEF7F4FF2720FEF76E
:102C4000E1FF06B010BD000000380140203802400E
:102C500000040240004800400008024010B503464E
:102C600093F83A0020282FD101B10AB9012010BDF4
:102C700000BF93F83800012801D10220F7E70120B6
:102C800083F8380000BF99629A85DA850020D863FE
:102C9000222083F83A0000BF002083F8380000BFEC
:102CA0001868C06840F480701C68E060186840696B
:102CB00040F001001C6860611868C06840F02000A6
:102CC0001C68E0600020D2E70220D0E710B504467F
:102CD00014492068096888420ED113480179C288D6
:102CE000C088401C104BD88003F108008154012299
:102CF000011F0C48FFF7B2FF0C49206809688842A1
:102D00000ED10B480179C288C088401C084BD8807E
:102D100003F1080081540122011F0448FFF79EFFC0
:102D200010BD0000A8010020400200206801002022
:102D3000D01500202DE9F84304460D4616461F46DF
:102D40004FF0000994F8390020285CD105B116B97C
:102D50000120BDE8F88300BF94F83800012801D1B4
:102D60000220F6E7012084F8380000BF0020E0636D
:102D7000212084F83900FEF7C9FE8146A684E68446
:102D80002BE0E08C401EE084A068B0F5805F16D197
:102D90004B46002280212046009701F0F5F808B14B
:102DA0000320D6E7A846B8F80000C0F30800216861
:102DB0004860206908B9AD1C0FE06D1C0DE04B4662
:102DC000002280212046009701F0DEF808B10320A0
:102DD000BFE715F8010B21684860E08C0028D0D1CE
:102DE0004B46002240212046009701F0CDF808B163
:102DF0000320AEE7202084F8390000BF002084F8CB
:102E0000380000BFA5E70220A3E7704700BFFEE738
:102E100010B50E4B1B68984204D00C4B1860012370
:102E20000B4C23810B4B1B68994204D0094B196052
:102E30000123094C2381094B1B689A4204D0074B9C
:102E40001A600123064C238110BD000038000020C9
:102E5000B80000203C000020C400002040000020FA
:102E6000D000002070B504460D461646FEF754FC0F
:102E700014490968884202D2002012490860FEF70E
:102E80004BFC10490968401AB0F57A7F06D9FEF765
:102E900043FC0C49086001200B4908810B4800885D
:102EA000A84204D009480580012009490881094841
:102EB0000088A04204D00748048001200649088108
:102EC00070BD000044000020AC000020480000203D
:102ED000A00000204A000020940000202DE9F041CD
:102EE00080460C4615461E46069F2889012807D1B4
:102EF000012C05D12946404600F077F800202881B2
:102F00003089012807D1022C05D13146404600F016
:102F10006CF8002030813889012807D1032C05D1B5
:102F20003946404600F061F800203881BDE8F08164
:102F300070B506460C4615462089012807D1214662
:102F4000304600F052F8002020810120288170BD19
:102F50002DE9F04107460E4614461D4630890128EA
:102F600005D13146384600F040F8002030812089F4
:102F7000012805D12146384600F037F8002020818D
:102F80002889012805D12946384600F02EF800206E
:102F90002881BDE8F0812DE9F04180460C461546B8
:102FA0001E46069F012C08D12889012805D12946F3
:102FB000404600F01AF800202881022C08D1308900
:102FC000012805D13146404600F00FF8002030813D
:102FD000032C08D13889012805D13946404600F034
:102FE00004F800203881BDE8F08170B505460C4634
:102FF000A27921792846FDF7D5FD28462168FDF7FD
:10300000EEFE70BD00B587B0142102A8FDF7BFF831
:1030100000BF4048006840F004003E490860084690
:10302000006800F00400019000BF00BF00BF084628
:10303000006840F0010008600846006800F00100E8
:10304000019000BF00BF00BF0846006840F00200CA
:1030500008600846006800F00200019000BF00BF51
:1030600000BF0846006840F0080008600846006895
:1030700000F00800019000BF00BF002243F2EF31D2
:103080002548FEF73DFD002248F60F712348FEF764
:1030900037FD00224FF201012148FEF731FD43F2D6
:1030A000EF3002900120039000200490059002A9C7
:1030B0001948FEF735FC48F60F7002900120039086
:1030C00000200490059002A91448FEF729FC4FF255
:1030D000010002900120039000200490059002A9B5
:1030E0000F48FEF71DFC04200290002003900120F1
:1030F000049002A90B48FEF713FC38200290002030
:1031000003900120049002A90548FEF709FC07B0CE
:1031100000BD00001C3802400008024000000240D0
:1031200000040240000C024000B587B0002003906C
:10313000049005900690019002904FF08040144951
:1031400008604FF47A5048600021114881604FF4C4
:103150007A71C160002101614161FFF78FFA08B106
:10316000FEF7EEF94FF48050039003A90848FFF7EB
:10317000D4FA08B1FEF7E4F900200190029001A909
:103180000348FFF751FA08B1FEF7DAF907B000BDBE
:103190002C01002010B50B480B4908604FF4E130BA
:1031A0004860002108488160C16001610C214161D3
:1031B00000218161C161FFF791FC08B1FEF7C0F900
:1031C00010BD0000003801406801002010B50B4818
:1031D0000B4908604FF4E1304860002108488160E5
:1031E000C16001610C21416100218161C161FFF772
:1031F00075FC08B1FEF7A4F910BD000000480040BE
:10320000A801002000BFFEE77047704718B50346CD
:1032100000222548006800F0F00050BB22481C3016
:10322000006800F0805020B12048006800F4C051D0
:1032300018E000BF1C481C30006840F080501A4C59
:103240001C3420602046006800F08050009000BFD1
:1032500000BF1648006800F4C0512046006820F006
:1032600080502060B1F5C05F03D1B3F5404F00D16D
:10327000012200BF012A05D10D48006840F004007A
:103280000B4C20600A48006820F001001043084CF5
:10329000206000BF2046006800F00100904201D08D
:1032A000012018BD0020FCE70838024000700040F3
:1032B000003C024010B50E48FEF75CF90D4908804D
:1032C00008460088012811D10948001DFEF752F96F
:1032D0000949086006480830FEF74CF907490860BC
:1032E00003480C30FEF746F90549086010BD0000A0
:1032F00010F80108F4000020E0000020E4000020A5
:10330000E80000202DE9F04F8DB004468B46914631
:103310009A462046FCF758FF85B200260027B046A3
:10332000002053E0215C542902D0215C74294CD147
:10333000811C615C3D2903D0811C615C3A2944D128
:10334000411C615C312911D1C11C0CE0625C302A46
:1033500002DB625C392A00DD07E0625C09AB9A554A
:10336000721C96B2491CA942F0DB00BF411C615C93
:10337000322911D1C11C0CE0625C302A02DB625C94
:10338000392A00DD07E0625C05ABDA557A1C97B29A
:10339000491CA942F0DB00BF411C615C332914D1F8
:1033A000C11C0FE0625C302A02DB625C392A00DD5E
:1033B0000AE0625C01AB03F8082008F101021FFA81
:1033C00082F8491CA942EDDB00BF401CA842A9DBE2
:1033D0003246594609A8FDF70FFD3A46494605A869
:1033E000FDF70AFD4246514601A8FDF705FD0DB067
:1033F000BDE8F08F2DE9F04706460F4614461D46FE
:10340000DDE90889002239463046FEF779FB0022C3
:1034100029462046FEF774FB002249464046FEF747
:103420006FFBBDE8F08700002DE9F04104460F4630
:1034300015461E460E4807600E4805600E48066099
:10344000012020800A480D4908600B48026809489D
:10345000016807480068FFF7DBFC07480268054879
:1034600001680348006800F07FFEBDE8F0810000BD
:103470001C00002020000020240000202800002044
:103480001CB53C48008888B901203B4908230A46FE
:10349000CDE900100421384800F07BF83548008859
:1034A000401C3449088000203449086031480088B5
:1034B000012817D13148006831490968884211D381
:1034C00002202D4903462F4ACDE900100121104664
:1034D00000F05FF827480088401C2649088000203B
:1034E0002649086023480088022817D1234800682D
:1034F00025490968884211D302201F490346214A01
:10350000CDE9001001211046FFF774FF194800882B
:10351000401C184908800020184908601548008898
:10352000032817D11548006815490968884211D346
:103530000120114908230A46CDE9001004210E4854
:10354000FFF758FF0B480088401C0A4908800020FC
:103550000A4908600748008804280AD1074800681B
:103560000A490968884204D30020044908600149D7
:1035700008801CBDF000002000080240DC00002094
:10358000E800002000000240E0000020E4000020ED
:1035900070472DE9F04706460F4614461D46DDE903
:1035A0000889012239463046FEF7AAFA0122294647
:1035B0002046FEF7A5FA012249464046FEF7A0FA4A
:1035C000BDE8F087F0B53C233C24194D194E366810
:1035D0004FF46167B6FBF7F606800688C6EB061661
:1035E000B600C6EB0616134F3F68A7EB86063C27CE
:1035F000B6FBF7F60E800688C6EB0616B600C6EBDD
:1036000006160C4F3F88A7EB86060F88C7EB0717F7
:10361000A6EB87061680074E36686F1EBE4205D39E
:103620000026044F3E6006800E801680F0BD00002C
:1036300080510100DC0000202DE9F04781460E4654
:1036400092461D46DDE908870A9C022C04D8002218
:1036500031461548FEF754FA022C10D9032C0ED827
:10366000002229461048FEF74BFA002239460F483F
:10367000FEF746FA012231460B48FEF741FA032CC9
:1036800006D9062C04D8012229460748FEF738FA45
:10369000062C06D9152C04D8002229460248FEF72C
:1036A0002FFABDE8F0870000000402400008024045
:1036B000FEB5254C002202212448FDF773FA24A10F
:1036C0002248FDF78CFB21E0244800682021244A91
:1036D0000123CDE900210290224A09021046FFF79A
:1036E000ABFF1E480068FCF7CDFE07462146FCF7FD
:1036F00072FD0646FCF7E9FEC5B2012229461348D1
:10370000FDF750FA18A11148FDF769FB134800684E
:103710001628D9D911480068192808D80022022192
:103720000A48FDF73FFA11A10848FDF758FB124877
:10373000FDF7B5FE10491148FDF7F0FD0E490F48A1
:10374000FDF7C0FDFEBD0000C3F5A83FE801002065
:103750004C6F6164696E672053494D00DC000020A6
:1037600000080240000402402E00000020436F6E5B
:103770006669672053494D0040020020D0150020A3
:103780002DE9F0419EB004460D4616461F464FF007
:10379000000826220EA82968FCF7E0FC2868C08CE7
:1037A000ADF85E002868816A1891808DADF86400DC
:1037B0002868C08DADF86600286800F13001092244
:1037C0001AA8FCF7CBFC286890F839008DF8710036
:1037D000286890F83A008DF872002868C06B1D9038
:1037E000302212A968460C96FCF7B8FC0EA80FC848
:1037F00000F076F926220EA82168FCF7AFFC2068BD
:10380000C08CADF85E002068816A1891808DADF89B
:1038100064002068C08DADF86600206800F13001BA
:1038200009221AA8FCF79AFC206890F839008DF854
:103830007100206890F83A008DF872002068C06B23
:103840001D90302212A968460C96FCF787FC0EA842
:103850000FC8FDF75BFE00BF2846FDF71DFC0028E2
:10386000FAD0394605F10800FCF79CFC10B14FF086
:10387000010801E04FF0000826220EA82168FCF79D
:103880006DFC2068C08CADF85E002068816A1891DC
:10389000808DADF864002068C08DADF866002068AA
:1038A00000F1300109221AA8FCF758FC206890F8B2
:1038B00039008DF87100206890F83A008DF8720098
:1038C0002068C06B1D9005F10800302212A90C90F1
:1038D0006846FCF743FC0EA80FC8FDF717FE284604
:1038E000FDF7DDFD4FFA88F01EB0BDE8F08110B5A0
:1038F000FEF712F9FEF794FE10BD000000B593B07C
:10390000342106A8FCF743FC142101A8FCF73FFC76
:103910001348006820F4C05040F40060104908606B
:10392000022006900120099010200A9000200F909C
:1039300006A8FEF73DFB08B1FDF702FE0F2001903F
:10394000012002900020039004900590002101A81E
:10395000FEF7BAF908B1FDF7F3FD13B000BD0000A2
:10396000007000401448006840F4807012490860FC
:10397000114808300068114908400F4908310860B3
:103980000D4800680E4908400B4908600846006869
:1039900020F48020086008480830006820F47D008A
:1039A0000549083108600020091D08604FF00060DB
:1039B0000449086070470000003802400CC0FF88CE
:1039C000FEFFFEEE08ED00E010B50248FEF72AFF0C
:1039D00010BD00002C01002010B50268B0F1804F2E
:1039E0000BD01B4B984208D01A4B984205D01A4B6B
:1039F000984202D0194B984203D122F070024B68D2
:103A00001A43B0F1804F11D0114B98420ED0114B98
:103A100098420BD0104B984208D0104B984205D0DA
:103A20000F4B984202D00F4B984203D122F44072C0
:103A3000CB681A4322F080030C6943EA0402026057
:103A40008B68C3620B6883620123436110BD000071
:103A50000004004000080040000C00400008014045
:103A6000000C01400010014030B50C46816821F483
:103A70007F4142EA032525432943816030BD0A4640
:103A8000816821F0700142F007031943816070479B
:103A900030B50B461446026A056A25F00105056239
:103AA000816921F0F00141EA041122F00A021A436F
:103AB0008161026230BD30B50B461446056A25F0BF
:103AC000100505628169026A21F4704141EA0431FE
:103AD00022F0A00242EA03128161026230BD0000BE
:103AE0000FB470B5149C2046FCF76EFB85B24FF402
:103AF0007A732A46214604A8FFF71CF94FF47A731B
:103B0000012203A104A8FFF715F970BC5DF814FBAE
:103B10000D00000070B505466C6A0020E085E08469
:103B20002046FEF734FF70BD0168C96821F490712A
:103B30000268D1600168496921F0010102685161A0
:103B4000202180F83A10704710B504462068C068FC
:103B500020F040002168C860202084F83900204609
:103B6000FFF753F9002010BD70B5044694F83A00F1
:103B700022284AD1A068B0F5805F13D1A56A2069D8
:103B800040B920684068C0F308002880A06A801C03
:103B9000A06219E020684068C0B22880A06A401C7A
:103BA000A06211E0206938B920684068C1B2A26AF9
:103BB000501CA062117007E02068406800F07F018F
:103BC000A26A501CA0621170E08D401E80B2E08598
:103BD000C8B92068C06820F020002168C86020684B
:103BE000C06820F480702168C8602068406920F0B7
:103BF000010021684861202084F83A002046FFF740
:103C000065F8002070BD0020FCE70220FAE7000004
:103C100070B504462168096921F44051E2681143F6
:103C2000226811612269A168114362691143E26946
:103C300041EA02052168C96849F20C6291432943AF
:103C40002268D1602168496921F44071A269114359
:103C500022685161E169B1F5004F7DD1AF4A216819
:103C6000914255D1FEF756F900EBC00101EB00116E
:103C700062685200B1FBF2F16422B1FBF2F10A0179
:103C800000EBC00101EB001163685B00B1FBF3F1D5
:103C900000EBC00303EB001366687600B3FBF6F39A
:103CA0006426B3FBF6F303EBC30606EB0313A1EBA9
:103CB0008301322303EBC1016423B1FBF3F101F073
:103CC000F80102EB410200EBC00101EB0011636857
:103CD0005B00B1FBF3F100EBC00303EB001366687C
:103CE0007600B3FBF6F36426B3FBF6F303EBC306EF
:103CF00006EB0313A1EB8301322303EBC101642321
:103D0000B1FBF3F101F0070111442268916004E175
:103D1000FEF7F0F800EBC00101EB00116268520001
:103D2000B1FBF2F16422B1FBF2F10A0100EBC00138
:103D300001EB001163685B00B1FBF3F100EBC00322
:103D400003EB001366687600B3FBF6F36426B3FB5F
:103D5000F6F303EBC30600E032E006EB0313A1EB3E
:103D60008301322303EBC1016423B1FBF3F101F0C2
:103D7000F80102EB410200EBC00101EB00116368A6
:103D80005B00B1FBF3F100EBC00303EB00136668CB
:103D90007600B3FBF6F36426B3FBF6F303EBC3063E
:103DA00006EB0313A1EB8301322303EBC101642370
:103DB000B1FBF3F101F00701114422689160ACE01E
:103DC000564A2168914254D1FEF7A4F800EBC00195
:103DD00001EB001162689200B1FBF2F100EBC0024E
:103DE00002EB001263689B00B2FBF3F26423B2FBA8
:103DF000F3F202EBC20303EB0212A1EB82013222C7
:103E000002EB01116422B1FBF2F101F0F00200EBD0
:103E1000C00101EB001163689B00B1FBF3F1642367
:103E2000B1FBF3F102EB011200EBC00101EB001159
:103E300063689B00B1FBF3F100EBC00303EB0013DD
:103E40006668B600B3FBF6F36426B3FBF6F303EB48
:103E5000C30606EB0313A1EB8301322303EB01112D
:103E60006423B1FBF3F101F00F011144226891606A
:103E700053E0FEF73FF800EBC00101EB0011626870
:103E80009200B1FBF2F100EBC00202EB001263689A
:103E90009B00B2FBF3F26423B2FBF3F202EBC2032A
:103EA00003EB0212A1EB8201322202EB0111642228
:103EB000B1FBF2F101F0F00200EBC00101EB0011E7
:103EC00063689B00B1FBF3F16423B1FBF3F102EBF8
:103ED000011200EBC00101EB001163689B00B1FB14
:103EE000F3F100EBC00303EB00136668B600B3FB0D
:103EF000F6F36426B3FBF6F303EBC30606EB0313FA
:103F0000A1EB8301322303EB01116423B1FBF3F135
:103F100001F00F0111442268916070BD003801402A
:103F2000014691F8390021282CD18868B0F5805FCE
:103F30000FD10A6A1088C0F308000B68586008693E
:103F400018B9086A801C086209E0086A401C086207
:103F500005E00B6A581C086218780B685860C88C1A
:103F6000401E80B2C88458B90868C06820F080003C
:103F70000B68D8600868C06840F040000B68D860E3
:103F8000002070470220FCE72DE9F04104460D4671
:103F900017469846069E21E0701CF8B12EB1FDF739
:103FA000B5FDA0EB0800B04218D92068C06820F425
:103FB000D0702168C8602068406920F00100216845
:103FC0004861202084F8390084F83A0000BF0020BE
:103FD00084F8380000BF0320BDE8F0812068006845
:103FE0002840A84201D1012000E00020B842D3D0EF
:103FF0000020F1E710B50248FEF7CAFC10BD000032
:104000006801002010B50248FEF7C2FC10BD000098
:10401000A8010020012006490881064908810649B7
:1040200008810649088106490881064908817047C8
:10403000700000207C00002088000020B8000020D4
:10404000C4000020D000002038B504460D460B4ABD
:104050000B492046FEF76CFF0A480B4B0B4A2946DA
:1040600000902046FEF73AFF09480A4B0A4A2946C3
:1040700000902046FEF78FFF38BD0000640000204E
:1040800058000020880000207C00002070000020E4
:10409000D0000020C4000020B800002028B9074943
:1040A000098911B90121064A1181012805D1044964
:1040B000098911B90121014A118170475800002076
:1040C0006400002038B504460D460B4A0B492046D3
:1040D000FEF72EFF0A480B4B0B4A2946009020465C
:1040E000FEF7FCFE09480A4B0A4A29460090204682
:1040F000FEF751FF38BD000058000020640000208A
:10410000880000207C00002070000020D0000020EB
:10411000C4000020B800002010B50446034B044A38
:1041200004492046FEF714FF10BD0000AC0000203B
:10413000A00000209400002070B504460E461546ED
:104140002146064800F049F83146054800F045F898
:10415000A9B2044800F041F870BD00004C000020F6
:104160004F0000205200002070B504460E46154650
:104170002146064800F012F83146054800F00EF8D6
:104180002946044800F00AF870BD00001001002024
:10419000190100202201002000BFFEE770B50122B6
:1041A0000A2404E004EB84035C00531C9AB2B1FBC4
:1041B000F4F3002BF6D1531E0AE00A25B1FBF5F605
:1041C00005FB16153035C5540A25B1FBF5F15B1E0C
:1041D000002BF2DA2023835470BD0A2905DA30223D
:1041E000027001F1300242700BE00A2291FBF2F200
:1041F000303202700A2291FBF2F302FB13123032CA
:104200004270002282707047F0B59DB004460D46A2
:10421000164600272846FCF73FFF01283BD13146D0
:1042200005F10800FBF7BEFF08B1012700E00027F9
:1042300026220DA82168FBF791FF2068C08CADF8FD
:104240005A002068816A1791808DADF8600020685F
:10425000C08DADF86200206800F13001092219A874
:10426000FBF77CFF206890F839008DF86D0020681E
:1042700090F83A008DF86E002068C06B1C9005F134
:104280000800302211A90C906846FBF767FF0DA8C3
:104290000FC8FDF73BF978B21DB0F0BD490050EAF8
:1042A000C12018BF04204A0D18BF40F0010040F2A1
:1042B000FF72B2EB515F08BF40F00200012808BF57
:1042C0000520704702480068C0F3022070470000D4
:1042D0000CED00E010B5002804DB0A07130E054AB8
:1042E000135406E00A07140E034A00F00F031B1FC5
:1042F000D45410BD00E400E018ED00E02DE9F041D9
:104300004F1E00EBC7010446D1E9000115461E46C9
:1043100037F006020DD02A463346FCF741F87F1EDF
:1043200004EBC703D3E90023FBF793FF37F0060242
:10433000F1D1022F25D0042F13D0062F18BFBDE8CE
:10434000F0812A463346FCF72BF8D4E90A23FBF721
:1043500080FF2A463346FCF723F8D4E90823FBF70D
:1043600078FF2A463346FCF71BF8D4E90623FBF70F
:1043700070FF2A463346FCF713F8D4E90423FBF711
:1043800068FF2A463346FCF70BF8D4E90223FBF713
:1043900060FF2A463346FCF703F8D4E90023BDE862
:1043A000F041FBF756BF00000022134610460149BA
:1043B000FCF77DB90000F03FFBF74BBF002213462E
:1043C00010461146FCF773B940F2013200204FF05D
:1043D000E041FCF7DBB90000024A00201107FCF7BE
:1043E000D5B9000001FDFFFF02E008C8121F08C197
:1043F000002AFAD170477047002001E001C1121F66
:10440000002AFBD170470000014908607047000096
:104410000C0100208CB042484249086042484349A0
:104420000860FDF785FBFFF769FAFEF7EBFDFEF785
:104430007BFEFEF7AFFEFEF7C9FE3D48FEF758F9DA
:1044400001223A49091D3848FEF708FC0122354986
:10445000091D3348FEF702FC4FF4805035498200B5
:10446000CDE90712CDE90910C0004022324BCDE959
:104470000332CDE9051080204200CDE900230290EF
:10448000022210212D48FCF715FBFFF711F9FEF76A
:1044900011FF002211462948FCF784FB28A1274878
:1044A000FCF79DFC2B4803682B4802682B480168E9
:1044B0002B48FEF7B9FF32E0FCF7FEFDFDF704F8EC
:1044C000FCF7DEFC27480088C0B9FCF7B3FE2148A2
:1044D000214B224A224900902248FCF721FA214828
:1044E0000088FFF7DBFD1E480088032801D0FCF799
:1044F000E1F91B4801881148FFF7E4FD19480088DD
:1045000001280CD1FEF7BCFF16480088FFF7C6FD56
:10451000134801880948FFF797FDFCF78BFECBE7AE
:1045200068010020D0150020A801002040020020D2
:104530002C0100200004024000080240E801002095
:10454000202020202020202030303A30303A3030D7
:1045500000000000E8000020E4000020E00000204F
:10456000F2000020EC0000202DE9F04D1D460C4625
:1045700098B0174621F0004123F00043002814BFF3
:104580004FF0010C4FF0000C0CEB440CFE4A0CEB0E
:1045900002064FEA620C66452BD33E0018BF012687
:1045A00006EB45061644F94A964222D3F84A53EAE6
:1045B000070C02D0944205D148B918B0002011462A
:1045C000BDE8F08D002808BF4FF0000C01D04FF07F
:1045D000010C0CEB440212F5001F0AD8002F14BF87
:1045E0004FF0010C4FF0000C0CEB450212F5001FD0
:1045F00007D918B03A462B462146BDE8F04DFFF7E3
:10460000DBBE0022DFF88CA3002CB8BF534526DAAE
:10461000DFF884C36345A8BF022220DADFF870C345
:104620009C451CDCDFF874C30CEB235CBCF1140F5D
:1046300008DDCCF1340627FA06FC0CFA06F6BE4279
:104640000DD108E05FB9CCF1140623FA06FC0CFA90
:1046500006F69E4203D10CF00102C2F1020251EAB9
:10466000000C19D1002D17DA002C18BF022A01D036
:10467000012A07D00220FFF7C7FE18B0BDE8F04DB1
:10468000FFF792BE0220FFF7BFFEFFF78DFE18B0C6
:1046900081F00041BDE8F08DB7F1000C6CD15345BD
:1046A00025D104F1804212F5801201BF00280020BC
:1046B000B74918B008BFBDE8F08DB548884207DC9F
:1046C000002DA1BF6046294618B0BDE8F08D07E077
:1046D000281E05DA80F0004118B06046BDE8F08D74
:1046E000AF497944D1E9000118B0BDE8F08DDFF899
:1046F000A0C2634525D1002D1FDA19B1514512D151
:10470000D8B909E0002840F0EC82A24A214618B04E
:1047100062F31E01BDE8F08D0020214618B060F361
:104720001E01BDE8F08D08DA18B02346BDE8F04D53
:10473000024600206146FBF7BABF18B02146BDE82B
:10474000F08D514518DAB5F1804F0DD0A5F1005C20
:10475000BCF1FF5C10D1B4F1000C0DDB18B0614668
:10476000BDE8F04D00F0ECBB234618B00246BDE8B2
:10477000F04D1946FBF714BE060024F0004C3BD167
:10478000D9B1514533D1002C06DD002DA1BF002049
:10479000514618B0BDE8F08D002C01DD002D1BDB6B
:1047A000002C13DA002D11DB012A4FF0000014BF9A
:1047B00078497C4918B0BDE8F08D022A18BF002C5A
:1047C0000AD0012A08D1002C06DA0AE0002CB8BF72
:1047D000002D11DA012A04D0002018B00146BDE8EE
:1047E000F08D18B000204FF00041BDE8F08DA1F130
:1047F0004050B0F17F601AD0012000EBE47050EA25
:10480000020421D0624C521E4FF0000B104304BF33
:104810004FF0000B644C654883427CDD644A654878
:1048200093421FDD884217DB002D25DB37E0002C8B
:1048300000DA4AB1022A0CBF01204FF0FF3018B055
:10484000BDE8F04DFBF723BE0120FFF7DDFD18B0FA
:10485000BDE8F04DFFF7B2BD4D4A8A4202DC002DA3
:104860000ADC1CE0814202DA002D18DA04E0484B31
:10487000994220DD002D12DD0220FFF7C5FDFFF774
:10488000A3FD05460E460022534658462146FBF737
:1048900087FD18B066F31E012846BDE8F08D0220A2
:1048A000FFF7B2FDFFF798FD0A46214618B062F304
:1048B0001E01BDE8F08D002230466146FBF76AFD1F
:1048C00080460E466FF00102FBF760FF4FF0553255
:1048D000394BFBF762FD42463346FBF761FD002290
:1048E000364BFBF75AFD824642463346049110464A
:1048F0001946FBF755FD5246049BFBF751FD8A46CE
:1049000000904FF0C0422E4B40463146FBF748FD29
:104910002C4A2B4B00E027E0CDE9060151460098D8
:10492000FBF73EFD82460191274A284B404631461F
:10493000FBF736FD5246019BFBF72CFD82460B46EA
:1049400002460591DDE90601FBF783FCDDE906235C
:10495000002688463046FBF71DFD5246059BFBF7B7
:104960001CFD024600F07EB90020B1F5801F07DA79
:10497000352230466146FBF709FF06466FF03400EA
:1049800000EB215024E00000FFFF1F00FFFF0F009D
:104990000000F03F0000F07F0000404301FCFFFFFB
:1049A000520900000000F0FF0000F0BF0000E041ED
:1049B0000000F043FFFFEF3F5555D53F0000E03FBB
:1049C0004715F73FFE822B6544DF5DF80BAE543E82
:1049D000A0F2FF300190C1F3130040F07F6141F07D
:1049E00040510291FE498842D8BF002004DDFD49B4
:1049F0008142C8BF012001DD0D9008E000200D902C
:104A00000198401C01900298A0F580100290029934
:104A1000F54878440B910D9900EBC100D0E90023D3
:104A20000F9330460A920B99FBF7B4FCCDE90601CF
:104A3000DDE90A2130460F9BFBF70BFC02460B46D3
:104A40000020EA49FBF733FE059102460B46009031
:104A5000DDE90601FBF7A4FC1490E5488A464FF017
:104A6000000878440299006812904FF0005040EA24
:104A700061010D980F9B01EB804000F50021099129
:104A80000A9A1298FBF786FC32460B9BFBF785FCD3
:104A900042465346FBF784FC064602914046514687
:104AA000099B129AFBF77CFCDDE90623FBF775FCFA
:104AB0003246029BFBF76EFC059B009AFBF770FCED
:104AC0000091149A0490534610461946FBF768FC6F
:104AD00006460246C7480B46029106217844FFF776
:104AE0000DFCCDE90510029B324610461946FBF736
:104AF00057FCDDE90532FBF753FC059106465346AA
:104B000040461946149AFBF7A4FB009B049AFBF756
:104B100047FC3246059BFBF79CFBCDE9051042465E
:104B2000534610461946FBF73BFC0022B24B02915C
:104B30000A90FBF78EFBDDE90532FBF78AFB0E4698
:104B40004246AD4B4046FBF725FC029B0A9AFBF719
:104B500021FCDDE90532FBF720FC424602910A9078
:104B6000334610465146FBF71BFCCDE90601534680
:104B7000149A02990A98FBF713FC8A46029033466E
:104B8000424600990498FBF70BFC5346029AFBF748
:104B900060FB82460B4602460591DDE90601FBF704
:104BA00058FBDDE90623002088460646FBF7F2FBAA
:104BB0005246059BFBF7F1FB824609914FF060429C
:104BC0008E4B30464146FBF7EBFB049006918C4A36
:104BD0008A4B50460999FBF7E3FB82460291894ACA
:104BE000894B30464146FBF7DBFB5246029BFBF705
:104BF00030FB864B7B440D9A03EBC203D3E90023C1
:104C0000FBF727FB0E9007910198FBF740FC0591FD
:104C1000DDE9061382460E9A0498FBF71AFB7C4ADC
:104C20007A440D9B02EBC303D3E900230093029265
:104C3000FBF70FFB5246059BFBF70BFB0026884654
:104C400052463046059BFBF7A5FB009B029AFBF7FB
:104C5000A1FB069B049AFBF79DFB079B0E9AFBF7B3
:104C60009CFB024600200B46029038462946FBF783
:104C700097FB824601912B4638461946029AFBF76C
:104C800089FB32464346FBF78BFB5246019BFBF701
:104C9000E0FA07468A463246434629460298FBF721
:104CA0007FFB05460E463A465346FBF7D2FA594A71
:104CB0008846914221DBA8EB020353EA000210D19F
:104CC0002A463346FBF766FBCDE90401524A534BB3
:104CD00038465146FBF7BDFADDE90423FBF76EFDCC
:104CE00021D20220FFF790FBFFF76EFB0A46214618
:104CF00018B062F31E01BDE8F08D494B28F0004268
:104D00009A4210D3474A08EB020353EA00027FF4A9
:104D1000C6AD2A463346FBF73DFB3A465346FBF702
:104D20004DFD7FF6BCAD0022019228F000403E49C7
:104D30003E4A01EB2051824223DA481C4FF4801195
:104D400021FA00F040443A4AC0F30A517A44394B00
:104D5000A1F2FF31CB4020EA0303C0F3130040F47B
:104D60008010C1F11401C84012680190B8F1000F21
:104D7000BCBF4042019028463146FBF70BFB05467D
:104D80000E462A46334638465146FBF762FA4FF044
:104D900000084246284B40460591FBF701FBCDE950
:104DA0000601264A264B40460599FBF7F9FA009181
:104DB00002902A46334640460599FBF7EBFA3A46FD
:104DC0005346FBF7EAFA1F4A1F4BFBF7E9FA009B31
:104DD000029AFBF73EFA0746884602460B4635E044
:104DE0008E9803007AB60B009A0500000000F03F91
:104DF000D2050000000500000000084009C7EE3F92
:104E0000FD033ADCF5015B14E02F3EBED803000041
:104E10009C03000000009040FE822B654715973CE4
:104E200000CC904000346F3F01FCFFFF0000E03FEA
:104E3000E8020000FFFF0F00432EE63F396CA80C8C
:104E4000615C20BEEF39FAFE422EE63FDDE9060145
:104E5000FBF7FFF9DDE9062305460E46FBF79AFA54
:104E60003A464346FBF799FA0F462A4633460090E6
:104E700010461946FBF794FA824602462E488846A9
:104E80000B4605217844FFF739FA52464346FBF7B3
:104E900087FA2A463346FBF780FA80468A463B4625
:104EA00028463146009AFBF77BFA3B46009AFBF70F
:104EB000D0F90691009000224FF0804340465146C1
:104EC000FBF768FA0F460C90424653462846314697
:104ED000FBF766FA3B460C9AFBF7E9FB069B009A48
:104EE000FBF758FA2A463346FBF754FA0022134BD5
:104EF000FBF753FA054601980E4601EB00510815E1
:104F0000002810DC28463146019AFBF73FFCFFF7EA
:104F1000C5F9042808BFFFF75FFA28463146019A11
:104F2000FBF734FC05460B4618B02A465846214686
:104F3000BDE8F04DFBF734BA880100000000F03FF7
:104F40002DE9F04106460F46FBF762FC041E0D46B4
:104F500018BF0120284320F00040C0F17F6000F11D
:104F6000E040C00F0ED0301C18BF0120384320F0A5
:104F70000040C0F17F6000F1E040C00F04BF01209D
:104F8000FFF742FA20462946BDE8F08103040608EF
:104F90000C10182030000000000000000001020387
:104FA00004060708090000000001020304000000D5
:104FB000000000000000F03F000000000000F83F8B
:104FC00000000000000000000000004003B8E23FC5
:104FD000000000000000000006D0CF43EBFD4C3E77
:104FE000033333333333E33FFFAB6FDBB66DDB3F6C
:104FF0004D268F515555D53F01411DA96074D13FB4
:1050000065DBC9934A86CD3FEF4E454A287ECA3FAD
:105010003E5555555555C53F93BDBE166CC166BF2F
:105020002CDE25AF6A56113FF16BD2C541BDBBBE28
:10503000D0A4BE726937663E000000000000000088
:10504000534554555020200052756E6E696E67208E
:105050000000000054313A20202020202020202071
:10506000476961790000000054323A202020202056
:1050700020202020476961790000000054333A2045
:105080002020202020202020476961790000000096
:10509000B05000080000002010010000E8430008A4
:1050A000C051000810010020682C0000F8430008DF
:1050B00000000000000000000000000000000000F0
:1050C00000000000000000000000000000000000E0
:1050D00000000000000000000000000010F80108BF
:1050E00001000000000000000000000000000000BF
:1050F00000000000000000000000000000000000B0
:1051000000000000000000004850000800000000FF
:1051100000000000405000080000000000000000F7
:105120005450000800000100010000006850000811
:1051300000000100010000007C5000080000010098
:10514000010000004C0000200800000001000000E9
:105150004F0000200B000000010000005200002062
:105160000E000000010000001001002004000200F9
:1051700001000000190100200400020001000000ED
:1051800022010020040002000100000000000000D5
:105190000A0000000A0000000500000001000000F5
:1051A00000000100000000000000000000000000FE
:1051B000100000000100000068FF1F000000000058
:0400000508000125C9
:00000001FF
