:020000040800F2
:10000000F82B002039010008611B00087519000851
:100010005D1B0008FD0100083126000800000000FB
:100020000000000000000000000000000D1C00089F
:100030000504000800000000631B0008F71D00080D
:100040005301000853010008530100085301000840
:100050005301000853010008530100085301000830
:100060005301000853010008530100085301000820
:100070005301000853010008530100085301000810
:100080005301000853010008530100085301000800
:1000900053010008530100085301000853010008F0
:1000A000000000005301000853010008530100083C
:1000B000CD1E000853010008530100085301000839
:1000C00053010008530100085301000853010008C0
:1000D00053010008F924000853010008092500080D
:1000E00053010008530100085301000853010008A0
:1000F00053010008000000005301000853010008EC
:100100000000000000000000530100085301000837
:1001100053010008530100085301000800000000CB
:1001200053010008DFF80CD000F056F800480047F3
:100130008D260008F82B0020064880470648004717
:10014000FEE7FEE7FEE7FEE7FEE7FEE7FEE7FEE787
:10015000FEE7FEE7691E00082501000840EA0103EA
:100160009B0703D009E008C9121F08C0042AFAD26D
:1001700003E011F8013B00F8013B521EF9D2704731
:10018000D2B201E000F8012B491EFBD270470022D9
:10019000F6E710B513460A4604461946FFF7F0FF86
:1001A000204610BD30B505462A460B4612F8010B15
:1001B00013F8014B08B1A042F8D01CB1002802D0BE
:1001C0006D1CF1E7284630BD421C10F8011B0029C8
:1001D000FBD1801A70470000064C074D06E0E0682E
:1001E00040F0010394E8070098471034AC42F6D37E
:1001F000FFF79CFF682700088827000800BFFEE77C
:1002000070B50446002520790A2806D1012000F0A7
:1002100059F920790A2800D1012568B270BD000083
:100220002DE9F04105460C4616461F461348007856
:1002300010BB12E04FF4FA7000F044F91048007857
:10024000401C0F490870084600780A2805DD002088
:10025000087001200949087007E03B4632462146F4
:10026000284601F011FD0028E4D000BF0020044919
:100270000870204600F0C7F8BDE8F08118000020A3
:100280001900002030B59DB005460C4603E04FF440
:10029000FA6000F017F94AA34AA22146284601F065
:1002A000F3FC0028F3D082E045A347A2214628466C
:1002B000FFF7B6FF42A347A221462846FFF7B0FF4B
:1002C0003FA346A221462846FFF7AAFF46480078EA
:1002D00001286BD126220DA82168FFF73FFF206877
:1002E000C08CADF85A002068816A1791808DADF8F6
:1002F00060002068C08DADF86200206800F1300118
:10030000092219A8FFF72AFF206890F839008DF814
:100310006D00206890F83A008DF86E002068C06B80
:100320001C9032A0302211A90C906846FFF716FFEE
:100330000DA80FC801F056FE41F2883000F0C2F857
:1003400026220DA82168FFF709FF2068C08CADF8B0
:100350005A002068816A1791808DADF8600020688E
:10036000C08DADF86200206800F13001092219A8A3
:10037000FFF7F4FE206890F839008DF86D002068D2
:1003800090F83A008DF86E002068C06B1C901AA09F
:10039000302211A90C906846FFF7E0FE0DA80FC8A7
:1003A00001F020FE00201049087000E004E00E4833
:1003B000007800283FF478AF00BF1DB030BD0000CA
:1003C0004F4B00004154000041542B4350494E3FD5
:1003D0000000000041542B435351000041542B4373
:1003E000475245473F0000001800002041542B436E
:1003F00046554E3D3400000041542B4346554E3D7A
:1004000031000000704770B504460020E080207184
:1004100004F10800FFF7D8FE0546002004E00022A2
:1004200004F108010A54401CA842F8DB70BD00002A
:100430000FB470B5149C2046FFF7C6FE85B24FF48A
:100440007A732A46214604A801F028FA4FF47A73F9
:10045000022203A104A801F021FA70BC5DF814FB8C
:100460000D0A0000704770B50446002594F821007D
:10047000022803D00420A063012520E02068006842
:1004800020F00E00216808602068006820F001005C
:100490002168086094F8400000F01C0101208840A9
:1004A000E16B4860012084F8210000BF002084F83F
:1004B000200000BF606B10B12046616B8847284662
:1004C00070BD000070B5044600F006F906462546EA
:1004D000681C10B104480068054400BF00F0FCF837
:1004E000801BA842FAD370BD1000002078B50346E7
:1004F000002200240020CAE0012696400D6805EA8B
:100500000604002C71D04D68022D02D04D68122DCA
:1005100013D1D60803F1200555F826005507EE0E35
:100520000F25B540A8435607F60E0D69B540284380
:10053000D60803F1200545F8260018685600032563
:10054000B540A8430D7905F003055600B540284392
:1005500018604D68012D08D04D68022D05D04D68FA
:10056000112D02D04D68122D13D198685600032525
:10057000B540A8435600CD68B540284398605868F8
:1005800001259540A8430D79C5F3001595402843F2
:100590005860D86856000325B540A84356008D68BA
:1005A000B5402843D8604D6805F08055B5F1805FAF
:1005B0006CD100BF394D2D6845F00105374E3560CF
:1005C00035462D6805F00105009500BF00BF344D8C
:1005D000960855F8260095072E0F0F25B540A8431D
:1005E000304DAB4202D1002515E04FE02E4DAB421D
:1005F00001D101250FE02D4DAB4201D102250AE0CA
:100600002B4DAB4201D1032505E02A4DAB4201D170
:10061000042500E005259607360FB5402843204DF8
:10062000960845F82600244D2868A0434D6805F437
:100630008035B5F5803F00D120431F4D28602D1D2A
:100640002868A0434D6805F40035B5F5003F00D19A
:100650002043194D2D1D28602D1D2868A0434D688D
:1006600005F48015B5F5801F00D12043124D0835E3
:1006700028602D1D2868A0434D6805F40015B5F5C8
:10068000001F00D120430C4D0C352860521C0D6812
:10069000D540002D7FF430AF78BD000020380240F7
:1006A000080001400000024000040240000802402F
:1006B000000C024000100240000401400246136991
:1006C0000B400BB1012000E0002070470AB18161AE
:1006D00001E00B0483617047014800687047000027
:1006E00008000020034800680349096808440149DC
:1006F00008607047080000201000002010B500249A
:10070000032000F0B3F8002000F008F808B101243D
:1007100001E000F02FF8204610BD000070B504463F
:10072000002511480068D8B10F4800684FF47A716D
:10073000B1FBF0F00D490968B1FBF0F6304600F06E
:1007400005FD58B9102C07D200222146501E00F09A
:100750004FF80748046004E0012502E0012500E0AD
:100760000125284670BD0000100000201400002064
:100770000C00002008B500BF1448006840F000409D
:10078000124908600846006800F00040009000BF71
:1007900000BF00BF081F006840F00100091F08608B
:1007A0000846006800F00100009000BF00BF00BFD5
:1007B000081D006840F08050091D08600846006868
:1007C00000F08050009000BF00BF08BD24380240F8
:1007D00001460846002809DB00F01F0301229A4069
:1007E00043099B0003F1E023C3F8002100BF7047D9
:1007F0002DE9F05F80460D461646002701F01AFFEE
:10080000074639462A46334601F00700C0F1070A79
:10081000BAF1040F02D94FF0040A01E0C0F1070A4F
:10082000D14600F1040ABAF1070F02D24FF0000AD4
:1008300001E0A0F1030AD4464FF0010A0AFA09FACE
:10084000AAF1010A0AEA020A0AFA0CFA4FF0010BAD
:100850000BFA0CFBABF1010B0BEA030B4AEA0B049E
:100860002146404601F0EEFEBDE8F09F00BF00F0DB
:100870000702064B19684FF6FF031940044B0B4360
:1008800043EA0221014B196000BF70470CED00E004
:100890000000FA052DE9F04104460D4614B9012087
:1008A000BDE8F0817E48006800F00100A84218D23F
:1008B00000BF012D05D17A48006840F00400784956
:1008C00008607748006820F00100284374490860F8
:1008D00000BF0846006800F00100A84201D00120D6
:1008E000DEE7207800F00200022807D16D4800689A
:1008F00020F0F000A16808436A490860207800F001
:10090000010000287FD06068022807D165480838B8
:10091000006800F40030F8B90120C1E760680328DE
:1009200007D160480838006800F00070A0B90120C5
:10093000B6E76068012807D15A480838006800F017
:10094000020048B90120ABE756480838006800F4B7
:10095000007008B90120A3E75248006820F00300A6
:10096000616808434F490860FFF7B6FE06466068B5
:10097000022810D108E0FFF7AFFE801B41F288315A
:10098000884201D903208BE74648006800F00C003C
:100990000828F0D137E06068032810D108E0FFF79D
:1009A0009BFE801B41F28831884201D9032077E702
:1009B0003C48006800F00C000C28F0D123E060688F
:1009C000012810D108E0FFF787FE801B41F2883133
:1009D000884201D9032063E73248006800F00C0028
:1009E0000428F0D10FE008E0FFF776FE801B41F20B
:1009F0008831884201D9032052E72A48006800F074
:100A00000C000028F0D12648006800F00100A84240
:100A100018D900BF012D05D12148006840F004001D
:100A20001F4908601E48006820F0010028431C4947
:100A3000086000BF0846006800F00100A84201D02D
:100A400001202DE7207800F00400042807D1154884
:100A5000006820F4E060E1680843124908602078EB
:100A600000F00800082808D10E48006820F4605003
:100A7000216940EAC1000B49086000F041F80949CA
:100A80000968C1F30311084A515CC840074908606E
:100A900007480068FFF742FE0746384600E70000B7
:100AA000003C0240083802404D2700081400002096
:100AB0000C0000200148006870470000140000206E
:100AC00000B5FFF7F7FF04490968C1F30221034AA3
:100AD000515CC84000BD0000083802405D27000896
:100AE00000B5FFF7E7FF04490968C1F3C221034AD3
:100AF000515CC84000BD0000083802405D27000876
:100B0000F0B51A4E316801F00C0616B3042E04D06D
:100B1000082E04D00C2E1BD103E0154823E0154805
:100B200021E0154EC1F38347F25DC1F38156731C7A
:100B30000E4E366806F4803626B10E4E5643B6FB8E
:100B4000F3F403E00A4E5643B6FBF3F420460AE002
:100B500000BF064E361F3668C6F342356E1C0127AD
:100B6000B740F80300BF00BFF0BD000008380240E6
:100B70000024F40000366E01442700082DE9F843F4
:100B8000044614B90120BDE8F883FE48006800F06F
:100B90000C06FC48006800F48037207800F0010063
:100BA000002875D0082E04D00C2E0ED1B7F5803F4A
:100BB0000BD1F4480838006800F40030002867D0F2
:100BC0006068002864D10120DDE700BF606801286B
:100BD00008D1EC480838006840F48030E949083909
:100BE00008602DE0606868B9E6480838006820F4BD
:100BF0008030E449083908600846006820F4802005
:100C000008601DE0606805280DD1DE4808380068DE
:100C100040F48020DB49083908600846006840F449
:100C2000803008600CE0D7480838006820F4803035
:100C3000D449083908600846006820F4802008601C
:100C400000BF606890B1FFF747FD054606E0FFF77B
:100C500043FD401B642801D9032094E7C9480838A4
:100C6000006800F400300028F1D011E0FFF734FDF7
:100C7000054606E0FFF730FD401B642801D903203C
:100C800081E7C0480838006800F400300028F1D13E
:100C9000207800F00200022853D1042E02D00C2E3E
:100CA00017D1B7B9B7480838006800F0020020B182
:100CB000E068012801D0012065E7B248001F006804
:100CC00020F4F850216940EA0120AE49091F08606C
:100CD00037E0E06800B30120AB490860FFF7FCFC97
:100CE000054606E0FFF7F8FC401B022801D9032067
:100CF00049E7A4480838006800F002000028F1D055
:100D0000A048001F006820F4F850216940EA012043
:100D10009C49091F086014E000209B490860FFF708
:100D2000DBFC054606E0FFF7D7FC401B022801D993
:100D3000032028E793480838006800F002000028E4
:100D4000F1D1207800F01000102871D1F6BB8D4849
:100D50000838006800F4007018B1A06908B90120D3
:100D600011E78849091F206A096801F46041884237
:100D700019D9206A00F0F6FE08B1012003E7814886
:100D8000001F006820F46040216A08437D49091F64
:100D90000860217F7B48001F006861F31F6079496C
:100DA000091F08601AE07748001F006820F46040BF
:100DB000216A08437349091F0860217F7148001F99
:100DC000006861F31F606F49091F00E020E00860C0
:100DD000206A00F0C7FE08B10120D4E60121206A94
:100DE00001EB503101208840C00366490968C1F316
:100DF0000311664A515CC84065490860654800684F
:100E0000FFF78CFC8046B8F1000F42D04046BAE6AE
:100E1000A06948B301205C490862FFF75DFC054604
:100E200007E0FFF759FC401B022802D90320AAE67D
:100E30002FE054480838006800F400700028F0D013
:100E40005048001F006820F46040216A08434D4963
:100E5000091F0860217F4B48001F006861F31F6075
:100E60004849091F086014E0002047490862FFF75D
:100E700033FC054606E0FFF72FFC401B022801D992
:100E8000032080E63F480838006800F4007000281E
:100E9000F1D1207800F0080008282CD16069A8B1B1
:100EA00001203D490860FFF717FC054606E0FFF703
:100EB00013FC401B022801D9032064E631482C3082
:100EC000006800F002000028F1D014E00020324950
:100ED0000860FFF701FC054606E0FFF7FDFB401B3D
:100EE000022801D903204EE626482C30006800F085
:100EF00002000028F1D1207800F0040004286ED10F
:100F00004FF000091F481C30006800F0805088B97D
:100F100000BF1C481C30006840F0805019491C314B
:100F200008600846006800F08050009000BF00BFD5
:100F30004FF001091948006800F48070B0B91748F3
:100F4000006840F4807015490860FFF7C5FB05464E
:100F500006E0FFF7C1FB401B642801D9032012E61D
:100F60000E48006800F480700028F2D000BFA0682E
:100F7000012817D103482C30006840F480700149E3
:100F80002C310DE008380240000047424D27000890
:100F9000140000200C000020800647420070004032
:100FA000086028E0A06858B96648006820F480709E
:100FB000644908600846006820F4806008601AE010
:100FC000A06805280CD15F48006840F480605D4946
:100FD00008600846006840F4807008600BE040E05C
:100FE0005848006820F48070564908600846006838
:100FF00020F48060086000BFA06898B1FFF76CFB28
:10100000054608E0FFF768FB401B41F28831884243
:1010100001D90320B7E54B48006800F400700028B0
:10102000F0D012E0FFF758FB054608E0FFF754FB4D
:10103000401B41F28831884201D90320A3E5414891
:10104000006800F400700028F0D1B9F1010F07D159
:101050003C481038006820F080503A491039086048
:1010600000BF606AA8B30C2E52D0606A022839D142
:10107000002035490866FFF72FFB054606E0FFF71D
:101080002BFB401B022801D903207CE52D48343876
:10109000006800F000700028F1D1D4E90A0108438B
:1010A000216B084327492C39096821F47D01084345
:1010B00024492C390860012023490866FFF70CFBFE
:1010C000054607E0FFF708FB401B022802D9032072
:1010D00059E535E01B483438006800F000700028FE
:1010E000F0D02DE0002018490866FFF7F5FA054614
:1010F00006E0FFF7F1FA401B022801D9032042E580
:1011000010483438006800F000700028F1D117E072
:10111000606A012800D136E50A482C38076807F4D0
:101120008031A06A814209D107F47011E06A8142DE
:1011300004D107F44001206B814201D0012022E557
:10114000002020E5343802400000474270B50446D4
:101150002546681EB0F1807F01D301200FE0681E94
:101160004FF0E02148610F214FF0FF3001F06AFAA3
:1011700000204FF0E021886107200861002070BD49
:1011800010B5024600BF92F83800012801D10220B4
:1011900010BD012082F8380000BF022082F839001B
:1011A000106843681068846823F07003086803437C
:1011B00024F0800448680443106843601068846029
:1011C000012082F8390000BF002082F8380000BFFB
:1011D00000BFDDE710B504460CB9012010BD94F83E
:1011E000390028B9002084F83800204600F00CF8B7
:1011F000022084F83900211D206800F06FFE0120D4
:1012000084F839000020E9E738B504462068B0F1D9
:10121000804F15D100BF0B48006840F0010009491C
:1012200008600846006800F00100009000BF00BFA1
:10123000002205211C20FFF7DBFA1C20FFF7C8FA6B
:1012400038BD00002438024001460868C06840F0FC
:1012500001000B68D8600868806800F00702062A61
:1012600005D00868006840F001000B681860002095
:1012700070472DE9F04104460D4600BF94F8380050
:10128000012802D10220BDE8F081012084F8380055
:1012900000BF022084F839002068866826F07706AF
:1012A00026F47F46206886602868502833D00CDCFE
:1012B000202850D004DC00284BD0102851D149E020
:1012C000302849D040284CD139E060282DD07028F2
:1012D00007D0B0F5805F03D0B0F5005F41D10DE0DD
:1012E00040E0D5E902136A68206800F03FFE2068FC
:1012F000866846F077062068866033E0D5E90213F9
:101300006A68206800F032FE2068806840F48040FF
:101310002168886026E0EA686968206800F03AFE83
:101320005021206800F02DFE1CE0EA686968206802
:1013300000F043FE6021206800F023FE12E0EA681E
:101340006968206800F026FE4021206800F019FE40
:1013500008E000BF00BF00BF2968206800F011FE50
:1013600000E000BF00BF012084F8390000BF00206A
:1013700084F8380000BF00BF85E7704710B5044609
:1013800020680069C0F34000D8B12068C068C0F38D
:101390004000B0B16FF002002168086101202076A2
:1013A0002068806900F0030018B12046FFF7E5FFD0
:1013B00005E0204600F08BF8204600F089F8002078
:1013C000207620680069C0F38000D8B12068C0682A
:1013D000C0F38000B0B16FF0040021680861022002
:1013E00020762068806900F4407018B12046FFF72D
:1013F000C4FF05E0204600F06AF8204600F068F8D7
:101400000020207620680069C0F3C000D8B12068B1
:10141000C068C0F3C000B0B16FF008002168086177
:10142000042020762068C06900F0030018B120462F
:10143000FFF7A3FF05E0204600F049F8204600F042
:1014400047F80020207620680069C0F30010D8B16A
:101450002068C068C0F30010B0B16FF010002168C0
:101460000861082020762068C06900F4407018B137
:101470002046FFF782FF05E0204600F028F82046CE
:1014800000F026F8002020762068006900F00100B6
:1014900058B12068C06800F0010030B16FF0010061
:1014A00021680861204600F015F820680069C0F343
:1014B000801058B12068C068C0F3801030B16FF060
:1014C000400021680861204600F014F810BD704704
:1014D00070470000054A01681268914204D104492E
:1014E0000988491C024A1180704700001C00002036
:1014F00000000020704770472DE9F047044620683F
:1015000005682068C668206847694FF00008C14632
:1015100005F00F08B8F1000F0AD105F0200038B12E
:1015200006F0200020B1204600F0A0FDBDE8F087C5
:10153000B8F1000F6ED007F0010018B906F49070F2
:10154000002867D005F0010030B106F4807018B1B2
:10155000E06B40F00100E06305F0040030B107F0FB
:10156000010018B1E06B40F00200E06305F00200FA
:1015700030B107F0010018B1E06B40F00400E06307
:1015800005F0080030B107F0010018B1E06B40F041
:101590000800E063E06B70B305F0200028B106F0AE
:1015A000200010B1204600F061FD20684069C0F3C2
:1015B0008019E06B00F0080010B9B9F1000F23D0DA
:1015C000204600F033FD2068406900F040004028CC
:1015D00016D12068406920F0400021684861606BA6
:1015E00050B11748616B4863606BFEF73CFF10B168
:1015F000606B416B88470CE02046FFF77CFF08E0FA
:101600002046FFF778FF04E02046FFF774FF002034
:10161000E0638BE705F0800030B106F0800018B180
:10162000204600F0FFFE81E705F0400030B106F0F3
:10163000400018B1204600F009FD77E700BF75E7CC
:101640001920000810B504460CB9012010BDA0698E
:1016500000B100E000BF94F8390028B9002084F8F8
:101660003800204600F028F8242084F8390020684B
:10167000C06820F400502168C860204600F04AFD90
:101680002068006920F49040216808612068406962
:1016900020F02A00216848612068C06840F40050AA
:1016A0002168C8600020E063202084F8390084F8B5
:1016B0003A000020CAE7000010B586B004461421A5
:1016C00001A8FEF764FD3A492068884232D100BF84
:1016D0003848006840F48040364908600846006891
:1016E00000F48040009000BF00BF00BF081F0068EA
:1016F00040F00200091F08600846006800F0020080
:10170000009000BF00BFC020019002200290012085
:101710000390032004900720059001A92648FEF7B6
:10172000E5FE002202212520FFF762F82520FFF7C1
:101730004FF83AE021492068884236D100BF1D4861
:10174000001D006840F480201A49091D0860084601
:10175000006800F48020009000BF00BF00BF154863
:10176000001F006840F004001249091F0860084685
:10177000006800F00400009000BF00BF4FF440601C
:101780000190022002900120039003200490072082
:10179000059001A90A48FEF7A9FE0022032127208F
:1017A000FFF726F82720FFF713F806B010BD00005A
:1017B0000038014020380240000402400048004048
:1017C0000008024010B5034693F83A0020282FD1B4
:1017D00001B10AB9012010BD00BF93F838000128FB
:1017E00001D10220F7E7012083F8380000BF996299
:1017F0009A85DA850020D863222083F83A0000BF5A
:10180000002083F8380000BF1868C06840F480707A
:101810001C68E0601868406940F001001C68606165
:101820001868C06840F020001C68E0600020D2E723
:101830000220D0E710B504461449206809688842A0
:101840000ED113480179C288C088401C104BD88043
:1018500003F1080081540122011F0C48FFF7B2FF79
:101860000C492068096888420ED10B480179C2886A
:10187000C088401C084BD88003F108008154012225
:10188000011F0448FFF79EFF10BD000098000020D4
:10189000D800002058000020681400202DE9F843EB
:1018A00004460D4616461F464FF0000994F83900CD
:1018B00020285CD105B116B90120BDE8F88300BF2E
:1018C00094F83800012801D10220F6E7012084F8BD
:1018D000380000BF0020E063212084F83900FEF7C3
:1018E000FBFE8146A684E6842BE0E08C401EE0846B
:1018F000A068B0F5805F16D14B46002280212046BB
:10190000009700F0C3FD08B10320D6E7A846B8F859
:101910000000C0F3080021684860206908B9AD1CC8
:101920000FE06D1C0DE04B46002280212046009701
:1019300000F0ACFD08B10320BFE715F8010B2168EA
:101940004860E08C0028D0D14B4600224021204640
:10195000009700F09BFD08B10320AEE7202084F83B
:10196000390000BF002084F8380000BFA5E702203E
:10197000A3E7704700BFFEE700B587B0142102A8B7
:10198000FEF705FC00BF3A48006840F00400384903
:1019900008600846006800F00400019000BF00BF26
:1019A00000BF0846006840F0020008600846006872
:1019B00000F00200019000BF00BF00BF08460068B1
:1019C00040F0010008600846006800F00100019046
:1019D00000BF00BF002240F221212648FEF776FE1C
:1019E000002242F201012448FEF770FE00224FF46B
:1019F00040712248FEF76AFE4FF408700290012001
:101A0000039004900020059002A91A48FEF76EFD8D
:101A1000012002900390022004900020059002A96A
:101A20001448FEF763FD42F201000290012003908A
:101A300004900020059002A90F48FEF757FD4FF4CF
:101A4000407002900120039004900020059002A9AC
:101A50000A48FEF74BFD2020029000200390012051
:101A6000049002A90448FEF741FD07B000BD000044
:101A70001C380240000802400004024000000240FE
:101A800000B587B000200390049005900690019067
:101A900002904FF08040144908604FF47A5048603B
:101AA0000021114881604FF47A71C1600021016109
:101AB0004161FFF78FFB08B1FEF7D4FC4FF4805073
:101AC000039003A90848FFF7D4FB08B1FEF7CAFC4E
:101AD00000200190029001A90348FFF751FB08B1D3
:101AE000FEF7C0FC07B000BD1C00002010B50B487D
:101AF0000B4908604FF4E1304860002108488160DC
:101B0000C16001610C21416100218161C161FFF768
:101B100099FD08B1FEF7A6FC10BD00000038014099
:101B20005800002010B50B480B4908604FF4E13015
:101B30004860002108488160C16001610C21416159
:101B400000218161C161FFF77DFD08B1FEF78AFCCC
:101B500010BD0000004800409800002000BFFEE7D4
:101B60007047704718B5034600222548006800F00A
:101B7000F00050BB22481C30006800F0805020B1BB
:101B80002048006800F4C05118E000BF1C481C3019
:101B9000006840F080501A4C1C34206020460068D9
:101BA00000F08050009000BF00BF1648006800F4AD
:101BB000C0512046006820F080502060B1F5C05F21
:101BC00003D1B3F5404F00D1012200BF012A05D156
:101BD0000D48006840F004000B4C20600A48006883
:101BE00020F001001043084C206000BF2046006830
:101BF00000F00100904201D0012018BD0020FCE758
:101C00000838024000700040003C0240704700006D
:101C10002DE9F04780460D4691461C46DDE90876E1
:101C2000002229461648FEF751FD4FF47A70FEF760
:101C300049FC002221461248FEF748FD00223146A9
:101C40001048FEF743FD012229460D48FEF73EFDF0
:101C50004FF47A70FEF736FC012221460848FEF761
:101C600035FD4FF4FA60FEF72DFC002221460448B2
:101C7000FEF72CFD46F2A810FEF724FCBDE8F08725
:101C800000040240000802402DE9F0419EB00446E5
:101C90000D4616461F464FF0000826220EA829685A
:101CA000FEF75CFA2868C08CADF85E002868816A8F
:101CB0001891808DADF864002868C08DADF866007D
:101CC000286800F1300109221AA8FEF747FA2868AF
:101CD00090F839008DF87100286890F83A008DF876
:101CE00072002868C06B1D90302212A968460C96BD
:101CF000FEF734FA0EA80FC800F074F926220EA8D9
:101D00002168FEF72BFA2068C08CADF85E002068D1
:101D1000816A1891808DADF864002068C08DADF89F
:101D20006600206800F1300109221AA8FEF716FAB1
:101D3000206890F839008DF87100206890F83A001A
:101D40008DF872002068C06B1D90302212A9684681
:101D50000C96FEF703FA0EA80FC8FEF769FB00BF4A
:101D60002846FEF74DFA0028FAD0394605F108005A
:101D7000FEF718FA10B14FF0010801E04FF000082B
:101D800026220EA82168FEF7E9F92068C08CADF87C
:101D90005E002068816A1891808DADF8640020682B
:101DA000C08DADF86600206800F1300109221AA844
:101DB000FEF7D4F9206890F839008DF8710020689A
:101DC00090F83A008DF872002068C06B1D9005F104
:101DD0000800302212A90C906846FEF7BFF90EA841
:101DE0000FC8FEF725FB2846FEF70DFB4FFA88F0DB
:101DF0001EB0BDE8F08110B5FEF774FC10BD000008
:101E000000B593B0342106A8FEF7C1F9142101A84A
:101E1000FEF7BDF91348006820F4C05040F400609C
:101E200010490860022006900120099010200A90B5
:101E300000200F9006A8FEF7A1FE08B1FEF712FBE6
:101E40000F20019001200290002003900490059043
:101E5000002101A8FEF71EFD08B1FEF703FB13B039
:101E600000BD0000007000401448006840F480701D
:101E700012490860114808300068114908400F49AC
:101E8000083108600D4800680E4908400B49086099
:101E90000846006820F48020086008480830006880
:101EA00020F47D000549083108600020091D086004
:101EB0004FF000600449086070470000003802409D
:101EC0000CC0FF88FEFFFEEE08ED00E010B50248F2
:101ED000FFF754FA10BD00001C00002010B5026886
:101EE000B0F1804F0BD01B4B984208D01A4B984250
:101EF00005D01A4B984202D0194B984203D122F0D8
:101F000070024B681A43B0F1804F11D0114B9842C8
:101F10000ED0114B98420BD0104B984208D0104B6A
:101F2000984205D00F4B984202D00F4B984203D1F4
:101F300022F44072CB681A4322F080030C6943EA12
:101F4000040202608B68C3620B68836201234361F1
:101F500010BD00000004004000080040000C0040DC
:101F600000080140000C01400010014030B50C4653
:101F7000816821F47F4142EA03252543294381609A
:101F800030BD0A46816821F0700142F00703194311
:101F90008160704730B50B461446026A056A25F029
:101FA00001050562816921F0F00141EA041122F086
:101FB0000A021A438161026230BD30B50B461446F5
:101FC000056A25F0100505628169026A21F47041F5
:101FD00041EA043122F0A00242EA03128161026266
:101FE00030BD00000FB470B5149C2046FEF7ECF82D
:101FF00085B24FF47A732A46214604A8FFF74EFCB7
:102000004FF47A73012203A104A8FFF747FC70BCC8
:102010005DF814FB0D00000070B505466C6A0020E9
:10202000E085E0842046FFF766FA70BD0168C96864
:1020300021F490710268D1600168496921F00101C1
:1020400002685161202180F83A10704710B50446AB
:102050002068C06820F040002168C860202084F813
:1020600039002046FFF785FC002010BD70B50446FE
:1020700094F83A0022284AD1A068B0F5805F13D1C5
:10208000A56A206940B920684068C0F3080028802C
:10209000A06A801CA06219E020684068C0B2288055
:1020A000A06A401CA06211E0206938B9206840682D
:1020B000C1B2A26A501CA062117007E0206840689B
:1020C00000F07F01A26A501CA0621170E08D401EDA
:1020D00080B2E085C8B92068C06820F0200021687F
:1020E000C8602068C06820F480702168C8602068DB
:1020F000406920F0010021684861202084F83A00FE
:102100002046FFF797FB002070BD0020FCE702206F
:10211000FAE7000070B504462168096921F44051CE
:10212000E2681143226811612269A1681143626962
:102130001143E26941EA02052168C96849F20C626B
:10214000914329432268D1602168496921F4407193
:10215000A269114322685161E169B1F5004F7DD157
:10216000AF4A2168914255D1FEF7BAFC00EBC0019D
:1021700001EB001162685200B1FBF2F16422B1FB85
:10218000F2F10A0100EBC00101EB001163685B0092
:10219000B1FBF3F100EBC00303EB001366687600BC
:1021A000B3FBF6F36426B3FBF6F303EBC30606EBCF
:1021B0000313A1EB8301322303EBC1016423B1FBC1
:1021C000F3F101F0F80102EB410200EBC00101EB79
:1021D000001163685B00B1FBF3F100EBC00303EB9C
:1021E000001366687600B3FBF6F36426B3FBF6F3E0
:1021F00003EBC30606EB0313A1EB8301322303EBCE
:10220000C1016423B1FBF3F101F00701114422681D
:10221000916004E1FEF754FC00EBC00101EB0011FA
:1022200062685200B1FBF2F16422B1FBF2F10A01E3
:1022300000EBC00101EB001163685B00B1FBF3F13F
:1022400000EBC00303EB001366687600B3FBF6F304
:102250006426B3FBF6F303EBC30600E032E006EBC3
:102260000313A1EB8301322303EBC1016423B1FB10
:10227000F3F101F0F80102EB410200EBC00101EBC8
:10228000001163685B00B1FBF3F100EBC00303EBEB
:10229000001366687600B3FBF6F36426B3FBF6F32F
:1022A00003EBC30606EB0313A1EB8301322303EB1D
:1022B000C1016423B1FBF3F101F00701114422686D
:1022C0009160ACE0564A2168914254D1FEF708FC77
:1022D00000EBC00101EB001162689200B1FBF2F16A
:1022E00000EBC00202EB001263689B00B2FBF3F24A
:1022F0006423B2FBF3F202EBC20303EB0212A1EB85
:102300008201322202EB01116422B1FBF2F101F0F1
:10231000F00200EBC00101EB001163689B00B1FB10
:10232000F3F16423B1FBF3F102EB011200EBC00106
:1023300001EB001163689B00B1FBF3F100EBC003FC
:1023400003EB00136668B600B3FBF6F36426B3FB39
:10235000F6F303EBC30606EB0313A1EB8301322371
:1023600003EB01116423B1FBF3F101F00F01114400
:102370002268916053E0FEF7A3FB00EBC00101EB84
:10238000001162689200B1FBF2F100EBC00202EBB7
:10239000001263689B00B2FBF3F26423B2FBF3F21A
:1023A00002EBC20303EB0212A1EB8201322202EB29
:1023B00001116422B1FBF2F101F0F00200EBC00167
:1023C00001EB001163689B00B1FBF3F16423B1FBE7
:1023D000F3F102EB011200EBC00101EB00116368A5
:1023E0009B00B1FBF3F100EBC00303EB0013666845
:1023F000B600B3FBF6F36426B3FBF6F303EBC306B8
:1024000006EB0313A1EB8301322303EB01116423D9
:10241000B1FBF3F101F00F0111442268916070BD2E
:1024200000380140014691F8390021282CD18868F4
:10243000B0F5805F0FD10A6A1088C0F308000B68FE
:102440005860086918B9086A801C086209E0086ABF
:10245000401C086205E00B6A581C086218780B687B
:102460005860C88C401E80B2C88458B90868C068DB
:1024700020F080000B68D8600868C06840F0400019
:102480000B68D860002070470220FCE72DE9F0417E
:1024900004460D4617469846069E21E0701CF8B18A
:1024A0002EB1FEF719F9A0EB0800B04218D9206848
:1024B000C06820F4D0702168C8602068406920F0AE
:1024C000010021684861202084F8390084F83A002E
:1024D00000BF002084F8380000BF0320BDE8F08171
:1024E000206800682840A84201D1012000E00020B7
:1024F000B842D3D00020F1E710B50248FEF7FCFF48
:1025000010BD00005800002010B50248FEF7F4FF8F
:1025100010BD000098000020F0B59DB004460D46A7
:1025200000262046FDF76CFE012842D126220DA888
:102530002168FDF713FE2068C08CADF85A002068B2
:10254000816A1791808DADF860002068C08DADF86C
:102550006200206800F13001092219A8FDF7FEFD94
:10256000206890F839008DF86D00206890F83A00E6
:102570008DF86E002068C06B1C9004F108003022BA
:1025800011A90C906846FDF7E9FD0DA80FC8FDF7ED
:102590004FFF04F10800FDF717FEC7B24FF47A733E
:1025A0003A4604F108012868FFF778F92046FDF75C
:1025B0002AFF2846FDF724FE012836D126220DA841
:1025C0002168FDF7CBFD2068C08CADF85A0020686B
:1025D000816A1791808DADF860002068C08DADF8DC
:1025E0006200206800F13001092219A8FDF7B6FD4C
:1025F000206890F839008DF86D00206890F83A0056
:102600008DF86E002068C06B1C9005F10800302228
:1026100011A90C906846FDF7A1FD0DA80FC8FDF7A4
:1026200007FF2846FDF7EFFE012670B21DB0F0BD92
:1026300000BFFEE702480068C0F3022070470000B8
:102640000CED00E010B5002804DB0A07130E054A64
:10265000135406E00A07140E034A00F00F031B1F71
:10266000D45410BD00E400E018ED00E002E008C81A
:10267000121F08C1002AFAD170477047002001E0FC
:1026800001C1121F002AFBD1704700001CB525486C
:1026900025490860254826490860FEF72FF8FFF70E
:1026A000AFFBFFF769F9FFF73DFAFFF71FFAFFF7F6
:1026B000E7F901221E49091D1C48FFF783F8012292
:1026C0001949091D1748FFF77DF81A48FEF7BCFDA8
:1026D000202019490123194ACDE9001001021046B2
:1026E000FFF796FA1248FDF78EFE11490E48FDF7E6
:1026F000C9FD15E00E490C48FFF70EFF10490860B0
:1027000020210E48FDF7DAFF28B9012211460A48B8
:10271000FDF7DCFF04E0002201210748FDF7D6FFAA
:10272000E8E700005800002068140020980000200E
:10273000D80000201C0000200008024000040240D5
:1027400004000020030406080C10182030000000CC
:102750000000000000010203040607080900000051
:102760000001020304000000882700080000002088
:102770001C0000006C260008A42700081C00002094
:10278000DC2B00007C260008000000000000000098
:1027900000000000100000000100000068FF1F00A2
:0427A0000000000035
:0400000508000125C9
:00000001FF
